:020000040800F2
:10000000B0040024AD02000889240008D9230008A8
:1000100081240008C9030008D9320008000000004C
:10002000000000000000000000000000E9260008B9
:10003000D10300080000000091240008F126000808
:10004000C7020008C7020008C7020008C70200086C
:10005000C7020008C7020008C7020008C70200085C
:10006000C7020008C7020008C7020008C70200084C
:10007000C7020008C7020008C7020008C70200083C
:10008000C7020008C7020008C7020008C70200082C
:10009000C7020008C7020008C7020008C70200081C
:1000A000C7020008C7020008C7020008C70200080C
:1000B000C7020008C7020008C7020008C7020008FC
:1000C000C7020008C7020008C7020008C7020008EC
:1000D000C7020008C7020008C7020008C7020008DC
:1000E000C7020008C702000800000000C70200089D
:1000F000C7020008C7020008C7020008C7020008BC
:10010000C7020008C7020008C7020008C7020008AB
:10011000C7020008C7020008C7020008C70200089B
:10012000C7020008C7020008C7020008C70200088B
:10013000C7020008C7020008C7020008C70200087B
:1001400000000000000000000000000000000000AF
:10015000C7020008C7020008C7020008C70200085B
:10016000C7020008C7020008C7020008C70200084B
:10017000C7020008C7020008C7020008C70200083B
:10018000C7020008C7020008C7020008C70200082B
:10019000C7020008C7020008C7020008C70200081B
:1001A000C7020008C7020008C7020008C70200080B
:1001B000C7020008C7020008C7020008C7020008FB
:1001C000C7020008C7020008C7020008C7020008EB
:1001D000C7020008C7020008C7020008C7020008DB
:1001E000C7020008C7020008C7020008C7020008CB
:1001F000C7020008C7020008C7020008C7020008BB
:10020000C7020008C7020008C7020008C7020008AA
:10021000C7020008C7020008C7020008C70200089A
:10022000C7020008C7020008C7020008000000005B
:10023000C7020008C702000800000000C70200084B
:10024000C7020008C7020008C7020008C70200086A
:10025000C7020008C7020008C7020008C70200085A
:10026000C7020008C7020008C7020008C70200084A
:10027000C7020008C7020008C7020008000000000B
:10028000C7020008C7020008C702000800000000FB
:1002900000000000C7020008DFF80CD000F07AF878
:1002A0000048004701330008B00400240648804796
:1002B00006480047FEE7FEE7FEE7FEE7FEE7FEE74B
:1002C000FEE7FEE7FEE7FEE7D927000899020008EF
:1002D0002DE9F05F0546002092469B46884606467B
:1002E000814640241BE0284641464746224600F00E
:1002F00041F853465A46C01A914110D31146184648
:10030000224600F028F82D1A67EB01084F462246D6
:100310000120002100F01FF817EB00094E41201EBC
:10032000A4F10104DFDC484631462A464346BDE8D5
:10033000F09FD2B201E000F8012B491EFBD27047BA
:100340000022F6E710B513460A4604461946FFF7A1
:10035000F0FF204610BD202A04DB203A00FA02F10B
:10036000002070479140C2F1200320FA03F31943A3
:1003700090407047202A04DB203A21FA02F0002145
:10038000704721FA02F3D040C2F1200291400843A5
:10039000194670471CB50948009009480190054668
:1003A000009C06E0E06840F0010394E807009847ED
:1003B0001034AC42F6D3FFF773FF0000D0330008CF
:1003C000F033000800000000FEE70000000000001D
:1003D0007047000000000000EFF3108072B600BF0D
:1003E000FEE70000000000002DE9F04F83B00F6829
:1003F000002F00F0C98000F1264642F2004506F1C8
:10040000FF76C5F602050A22A8424FEAB62540F259
:10041000040C08BF092200F120030093092DC5F642
:10042000000C38BF4FEAB622002400264FF0000827
:1004300001920AE008F101080F6837FA08F206F1A4
:10044000020604F1040400F09F80012202FA08FE73
:1004500017EA0E09EED0D1F804B003220BF003071F
:10046000B2407D1E6FEA020A012D11D88268CD6864
:1004700002EA0A02B5402A438260CBF300154268C3
:1004800022EA0E0205FA08F52A43426004E000BFA2
:10049000032F01D103271FE0C2688D6802EA0A0218
:1004A000B540022F42EA0502C26015D16FF0030287
:1004B00004F01C0502EA580B009A0F2352F80BE0D7
:1004C000AB400F692EEA0303AF403B4342F80B30C9
:1004D000D1F804B00BF00307026807FA06F302EA4A
:1004E0000A021BF4403F42EA03020260A2D044F237
:1004F000F44340F2084EC5F60203C5F6000E0F2580
:100500001A6842F002021A601A6802F002020292AD
:1005100028F00302029B04F00C0352F80E709D4079
:10052000AF43019D05FA03F33B4342F80E304FF011
:10053000B04EDEF800204B6842EA0907DD0258BFE2
:1005400022EA09079D02CEF80070DCF8002042EA9A
:10055000090758BF22EA09079D03CCF80070DCF8B0
:10056000802042EA090758BF22EA0907DB03CCF8DA
:100570008070DCF87C2042EA090758BF22EA0907AC
:10058000CCF87C7056E700BF03B0BDE8F08F0000E8
:1005900041F20000C5F600400068000C7047000002
:1005A00040F2AC00C2F2004000687047000000005A
:1005B00040F2040040F2AC01C2F20040C2F200413D
:1005C00000780A68104408607047000000000000CE
:1005D00080B5032000F0E8F801F09EF944F21841DC
:1005E00043F29833C5F60201C0F600030A68C2F36D
:1005F00003229A5C096801F00F0102F01F02595CA6
:10060000D04040F21002C2F2004201F01F0120FA75
:1006100001F1116040F20C01C2F2004108600F20AC
:1006200000F00AF800281CBF012080BD00F07CF813
:10063000002080BD00000000B0B540F20405C2F209
:1006400000452978F1B1044640F20C00C2F20040A6
:100650004FF47A72B2FBF1F10068B0FBF1F001F0F7
:100660009FFC0F2C01464FF001000AD8002918BF4B
:10067000B0BD4FF0FF300022214600F065F80020A9
:100680006C60B0BD0120B0BD10B54EF6A05E4378E1
:10069000CEF2000E90F800C04EF8083CDEF80030B4
:1006A00023F00103CEF8003043684EF8043C037B8E
:1006B000C27A817A447B120642EA0372837B42EA61
:1006C000C141C27B41EA8441447A41EA4341007A14
:1006D00041EA024141EA042141EA400040EA0C00BB
:1006E000CEF8000010BD00004EF62450CEF20000FF
:1006F000BFF35F8F016821F4803101600021016741
:1007000070470000000000004EF6245140F0010048
:10071000CEF200010867086840F480300860BFF33B
:100720004F8FBFF36F8F704781B044F2F440C5F62E
:100730000200016841F002010160006800F002005F
:100740000090009801B0704770B54EF60C5C4FF009
:10075000FF36CEF2000C00F1604505F56445DCF88B
:100760000030C3F3022E8EF00703042B28BF0423AE
:10077000BEF1030406FA03F321EA030100F00F03BC
:1007800038BF0024043B0028634406FA04F048BF45
:1007900003F10C05A14022EA000008430001287083
:1007A00070BD0000000000004EF60C514FF6FF0334
:1007B000CEF200010A681A4060F30A2242F080601B
:1007C00040F0FD7008607047B0B544F60C05C5F602
:1007D000020529684907296806D401F00701081AAB
:1007E00018BF0120B0BD00BF21F0070108432860F9
:1007F000FFF7D6FE044600BF55F8080C800407D466
:10080000FFF7CEFE001BB0F57A7FF5D90120B0BD11
:100810000020B0BD0000000080B500F0F5FF44F2FC
:10082000204143F29832C5F60201C0F60002096881
:10083000C1F30211515C01F01F01C84080BD0000EE
:1008400080B544F2384EC5F6020E5EF8103C5EF8F4
:10085000101C5EF80C2CC1F3053CDEF80410BCF152
:10086000000F15D0C908D20601EAE2716FF35F31BB
:1008700000EE101A03F003010229B8EE400A0DD071
:1008800081B95EF8381C890610D49FED361A1BE03A
:1008900000218160C0E9001180BD00BF9FED301ACA
:1008A00012E000BF9FED2D1A0EE000BF5EF8381C6D
:1008B00049F20002C0F2D032C1F3C10122FA01F1C3
:1008C00001EE101AB8EE411ADEF800109FED263A3C
:1008D0006FF35F2102EE101ADEF80010C1F346211B
:1008E000B8EE422A00EE032A00EE10CAB7EE003A34
:1008F000B8EE400A81EE000A32EE031A02EE101A38
:10090000B8EE422A20EE010A32EE031A80EE011AF6
:10091000BCEEC11A80ED001ADEF80010C1F30641EA
:1009200001EE101AB8EE411A31EE031A80EE011AE8
:10093000BCEEC11A80ED011ADEF80010C1F30661A9
:1009400001EE101AB8EE411A31EE031A80EE010AD8
:10095000BCEEC00A10EE101A816080BD0024744AFB
:1009600020BCBE4B0024744C000000390000000085
:1009700080B544F2404EC5F6020E5EF8183C5EF8B3
:10098000181C5EF8142CC1F3055CDEF80410BCF1F1
:10099000000F15D0C908D20501EAE2716FF35F318B
:1009A00000EE101A03F003010229B8EE400A0DD040
:1009B00081B95EF8401C890610D49FED361A1BE001
:1009C00000218160C0E9001180BD00BF9FED301A99
:1009D00012E000BF9FED2D1A0EE000BF5EF8401C34
:1009E00049F20002C0F2D032C1F3C10122FA01F192
:1009F00001EE101AB8EE411ADEF800109FED263A0B
:100A00006FF35F2102EE101ADEF80010C1F34621E9
:100A1000B8EE422A00EE032A00EE10CAB7EE003A02
:100A2000B8EE400A81EE000A32EE031A02EE101A06
:100A3000B8EE422A20EE010A32EE031A80EE011AC5
:100A4000BCEEC11A80ED001ADEF80010C1F30641B9
:100A500001EE101AB8EE411A31EE031A80EE011AB7
:100A6000BCEEC11A80ED011ADEF80010C1F3066178
:100A700001EE101AB8EE411A31EE031A80EE010AA7
:100A8000BCEEC00A10EE101A816080BD0024744ACA
:100A900020BCBE4B0024744C000000390000000054
:100AA0002DE9F0470446C07844F22C480007C5F60B
:100AB000020828D5A06E4FEA305103292AD8DFE872
:100AC00001F0030B131B00BFD8F8001041F40031F4
:100AD000C8F8001010E000BF04F10800022101F086
:100AE000DBFC064680B906E004F12800022101F093
:100AF00067FD064640B9A06ED8F8241021F44011D5
:100B00000843C8F8240000266078C00706D135469F
:100B10002FE000BF01266078C007F8D0A06D042840
:100B200058D83546DFE800F004140E0B0B0000BF68
:100B3000D8F80000354640F40030C8F800002F46D1
:100B4000C5B90DE004F12800002101F039FD04E0F1
:100B500004F10800002101F09FFC05462F464DB925
:100B6000D8F82400A16D20F0070000250843C8F83C
:100B7000240037466078800731D5E06D4FEAB01029
:100B800004285FD8DFE800F004140E0A0A0000BF52
:100B9000D8F8000040F40030C8F800002E46FDB937
:100BA0000EE000BF04F12800002101F009FD04E07F
:100BB00004F10800002101F06FFC05462E467DB9C6
:100BC000D8F82400E16D20F4E07000250843C8F84F
:100BD000240004E00125012760788007CDD43E463B
:100BE0006078400733D5D4F8A8004FEA7050042845
:100BF00060D8DFE800F003130D090900D8F8000001
:100C000040F40030C8F80000A9460DBB0EE000BF5C
:100C100004F12800002101F0D3FC04E004F10800F5
:100C2000002101F039FC0546A9468DB9D8F82C0001
:100C3000D4F8A81020F4600000250843C8F82C0060
:100C400005E000BF0125012660784007CBD4B146FE
:100C50006078000734D5D4F8AC004FEA306004283F
:100C60005ED8DFE800F003130D090900D8F8000092
:100C700040F40030C8F800002F4615BB0EE000BF5E
:100C800004F12800002101F09BFC04E004F10800BD
:100C9000002101F001FC05462F4695B9D8F82C003B
:100CA000D4F8AC1020F0E06000250843C8F82C0010
:100CB00006E000BF01254FF0010960780007CAD4A3
:100CC0004F46E078800730D5E06C4FEA30100328BB
:100CD00020D8DFE800F00903150900BFD8F80000AC
:100CE00040F40030C8F800002E46ADB9D8F8200016
:100CF000E16C20F0300000250843C8F8200014E023
:100D000004F10800022101F0C7FB05462E461DB97B
:100D1000ECE700BF012501266078C00609D434E065
:100D200001250127E0788007CED43E466078C006D2
:100D30002BD5206E4FEA3030042839D8DFE800F098
:100D400004140E0A0A0000BFD8F8000040F4003076
:100D5000C8F800002F46CDB90EE000BF04F128000E
:100D6000002101F02DFC04E004F10800002101F055
:100D700093FB05462F464DB9D8F82400216E20F488
:100D8000E04000250843C8F8240037466078800614
:100D900035D5606E4FEA3040052815D8DFE800F001
:100DA000041A0E04040400BF2E46DDB91EE000BF85
:100DB0000125012760788006EBD420E004F12800AB
:100DC000012101F0FDFB0AE00125012660784006C3
:100DD00019D449E004F10800012101F05DFB05464A
:100DE0002E461DB1607840060DD43DE0D8F82400B1
:100DF000616E20F4E02000250843C8F824003E4638
:100E00006078400630D5D4F8B0004FEA307005283D
:100E10000ED8DFE800F00313070303032F46ADB934
:100E200018E000BF04F12800012101F0C9FB0AE02D
:100E300001250127607800061AD43CE004F108007F
:100E4000012101F029FB05462F461DB160780006FF
:100E50000ED430E0D8F82C00D4F8B01020F0E040E8
:100E600000250843C8F82C0037466078000622D5D4
:100E7000206F58B1B0F1005F0CD0B0F1805F37D176
:100E8000D8F8000040F40030C8F800002E469DB9A4
:100E900008E000BF04F10800012101F0FDFA054659
:100EA0002E464DB9D8F82400216F20F0405000257F
:100EB0000843C8F824003E46E078C0071DD0A06C67
:100EC000032855D8DFE800F008024A08D8F80000E7
:100ED00040F40030C8F80000A9467DB9D8F82000D9
:100EE000A16C20F0030000250843C8F8200004E0AE
:100EF00001250126E078C007E1D1B146A07840067F
:100F000002D44F4618E000BFD8F8D40340F48070F4
:100F1000C8F8D403FFF744FB064600BFD8F8D40353
:100F2000C00507D4FFF73CFB801B6428F6D90325D6
:100F3000032701E02F46FDB12078C00700F06F8045
:100F4000E06F4FEAF00005284ED8DFE800F00353C9
:100F500047030303002D2E4654D157E004F1080047
:100F6000022101F099FA0546002DA946C6D1B5E740
:100F700001254FF00109C1E7D8F84410D4F8B400B6
:100F8000414011F4407F11D0D8F84410D8F84420E3
:100F900042F48032C8F84420D8F8442021F440714B
:100FA00022F48032C8F84420C8F84410B0F5807F9D
:100FB00040F0E082FFF7F4FA064641F2883A032552
:100FC000032700BFD8F84400800700F1D182FFF763
:100FD000E7FA801B5045F5D9AEE700BF04F12800C1
:100FE000012101F0EDFA0AE00125012620788007B1
:100FF00019D446E004F10800012101F04DFA05463C
:101000002E461DB1207880070DD43AE0D8F828008C
:10101000E16F20F0380000250843C8F828003E465C
:10102000207880072DD5A06F05280FD8DFE800F0C5
:1010300004140804040400BF2F46ADB918E000BF33
:1010400004F12800012101F0BBFA0AE00125012783
:101050002078400719D447E004F10800012101F08D
:101060001BFA05462F461DB1207840070DD43BE002
:10107000D8F82800A16F20F0070000250843C8F821
:1010800028003746207840072ED5D4F8940005284C
:101090000ED8DFE800F00313070303032E46ADB9B3
:1010A00018E000BF04F12800012101F089FA0AE0EC
:1010B00001250126207880061AD44BE004F10800AF
:1010C000012101F0E9F905462E461DB12078800680
:1010D0000ED43FE0D8F82C00D4F8941020F007008C
:1010E00000250843C8F82C003E462078800631D5FC
:1010F000D4F890004FEA307005280FD8DFE800F0F0
:1011000004140804040400BF2F46ADB918E000BF62
:1011100004F12800022101F053FA0AE00125012719
:10112000207840061AD44BE004F10800002101F0B9
:10113000B3F905462F461DB1207840060ED43FE096
:10114000D8F82800D4F8901020F0E040002508439B
:10115000C8F8280037462078400631D5D4F89C00DE
:101160004FEAB02005280FD8DFE800F00414080487
:10117000040400BF2E46ADB918E000BF04F12800FA
:10118000022101F01DFA0AE001250126207800065F
:101190001AD44EE004F10800002101F07DF9054663
:1011A0002E461DB1207800060ED442E0D8F82C005F
:1011B000D4F89C1020F4E05000250843C8F82C0017
:1011C0003E462078000634D5D4F8A0004FEA7030AF
:1011D000052815D8DFE800F0041A0E04040400BF47
:1011E0002F46E5B12068010727D4C1063ED400038D
:1011F00055D477E004F12800022101F0E1F90AE07A
:101200000125012720680107EFD516E004F1080049
:10121000002101F041F90546002D2F46E2D1D8F812
:101220002C00D4F8A01020F4604000250843C8F832
:101230002C00374620680107D7D5D4F88400B0F5D4
:10124000805F09D104F12800022101F0B9F90028DA
:1012500018BF0127D4F88400D8F8281021F4405191
:101260000843C8F828002068C106C0D5D4F8980003
:10127000B0F5807F09D104F12800022101F0A0F926
:10128000002818BF0127D4F89800D8F82C1021F4B2
:1012900040710843C8F82C002068000322D5D4F818
:1012A000A400B0F5003F11D0B0F5803F08D0002871
:1012B00044D104F10800002101F0EEF805E000BF80
:1012C00004F12800022101F07BF905462E4655B9AC
:1012D000D8F82C00D4F8A41020F44030002508439E
:1012E000C8F82C003E46A07840072CD5D4F88800DA
:1012F000B0F5401F0BD0B0F5001F0BD0B0F5801F2C
:101300002AD1D8F8000040F40030C8F800002F4679
:10131000D5B907E004F12800012101F051F9054693
:101320002F468DB9D8F82800D4F8881020F4401042
:1013300000250843C8F8280005E000BF0125012664
:10134000A0784007D2D43746A078C00709D13E46DE
:101350002168880015D532E001250127A078C00753
:10136000F5D0206DB0F5803F10D018BBD8F8000044
:1013700040F40030C8F800002E4685B1216888008E
:101380001DD460688A0326D469E000BF04F1080018
:10139000022101F081F80546002D2E46EED1D8F845
:1013A0002000216D20F4803000250843C8F820007B
:1013B000CDE700BF0125012621688800E1D504F1B1
:1013C0002800022101F0FCF8002818BF0126D4E90A
:1013D00000108A0343D5D4F880206FF0010303EB9B
:1013E0003223022B0BD34FEA322343B1012B40F0BF
:1013F000B980D8F8003043F40033C8F800303DB36A
:10140000CA022FD4CA0037D48A0240D44A0048D432
:10141000CA0F55D109025DD4C10766D181076FD4C7
:10142000410779D4010700F18380C10600F18C8067
:10143000800607D504F12800022101F0C1F8002838
:1014400018BF0125002D18BF01252846BDE8F087EB
:10145000D8F8283023F440731A43C8F828203546BA
:10146000CA02CFD5D8F82420636F22F000421A4375
:10147000C8F82420CA00C7D558F81C2CD4F8B830B6
:1014800022F480421A4348F81C2C8A02BED5D8F8B0
:101490002420E36E22F080721A43C8F824204A0008
:1014A000B6D558F81C2C22F4004248F81C2CD4F86D
:1014B000BC2058F81C3C1A4348F81C2CCA0FA9D071
:1014C000D8F82020636D22F040521A43C8F820203B
:1014D0000902A1D5D8F82810D4F88C2021F44001B5
:1014E0001143C8F82810C10798D004F10800002162
:1014F00000F0D2FF002818BF0546606881078FD52D
:1015000004F10800012100F0C7FF002818BF0546BC
:10151000606841077FF586AF04F10800022100F002
:10152000BBFF002818BF0546606801077FF57DAF47
:1015300004F12800002101F043F8002818BF0546F7
:101540006068C1067FF574AF04F12800012101F045
:1015500037F8002818BF0546606880063FF56AAF77
:1015600070E700BF0125CA027FF54CAF7AE700BFE4
:10157000D4F8B4004FF6CF7358F81C2CC0F2FF0318
:1015800000F4407122F47C5203EA10136FF31F3011
:10159000B1F5407F08BF1A43002548F81C2CD8F845
:1015A00044100843C8F84400FFF7ABBC000000003B
:1015B0002DE9F04381B0002800F0208142F20009BB
:1015C0000446C5F20029D9F8000000F00F00884257
:1015D0000DD2D9F8000020F00F000843C9F8000030
:1015E000D9F8000000F00F00884240F00781206821
:1015F00044F218464207C5F602060AD52269336846
:1016000003F070039A4204D9336823F070031A433D
:10161000326002070AD56269736803F070039A4268
:1016200004D9736823F070031A437260C2060AD5A6
:10163000A269736803F4E0639A4204D9736823F4DF
:10164000E0631A43726082060AD5E269B36803F068
:1016500070039A4204D9B36823F070031A43B2604E
:1016600010F002020AD0E368376807F00F07BB42A8
:1016700004D9376827F00F073B433360C3073FD0D7
:10168000306820F47062D4E901031A433260012803
:1016900056F8182C0AD0032804D002280AD1920345
:1016A0000BD4ABE0920108D4A8E000BFD20504D46B
:1016B000A4E000BF520740F1A180884656F8081CFC
:1016C00021F00701084346F8080CFEF769FF0546BC
:1016D00041F2883756F8080C616800F03800B0EB2A
:1016E000C10F09D0FEF75CFF401BB842F2D90320BE
:1016F00001B0BDE8F08300BF2068414600F002025F
:1017000052B1E268336803F00F039A4204D233689F
:1017100023F00F031A433260D9F8002002F00F02C1
:101720008A420CD9D9F8002022F00F020A43C9F8E6
:101730000020D9F8002002F00F028A425ED1410752
:101740000AD52169326802F07002914204D23268EF
:1017500022F070021143316001070AD56169726895
:1017600002F07002914204D2726822F070021143BA
:101770007160C1060AD5A169726802F4E062914203
:1017800004D2726822F4E0621143716080060AD5C7
:10179000E069B16801F07001884204D2B16821F0BB
:1017A00070010843B06000F0B7F8316843F2983236
:1017B000C0F60002C1F30321515C336803F00F034C
:1017C00001F01F01D25C20FA01F102F01F0040F28B
:1017D0001002C2F2004221FA00F0106040F208004C
:1017E00040F20C02C2F20040C2F2004200681160F6
:1017F00001B0BDE8F043FEF71FBF00BF012001B0FC
:10180000BDE8F0830000000080B500F085F844F2E8
:10181000184143F29833C5F60201C0F600030A6886
:10182000C2F303229A5C096801F00F0102F01F0263
:10183000595C20FA02F201F01F0040F21001C2F2DE
:10184000004122FA00F0086040F20C01C2F20041AF
:101850000A6080BD0000000080B500F05DF844F231
:10186000184C43F29833C5F6020CC0F60003DCF8BE
:101870000020C2F303229A5CDCF8001001F00F0193
:1018800002F01F02595CD04040F21002C2F2004246
:1018900001F01F0120FA01F1116040F20C02C2F2C6
:1018A00000421060DCF80400C0F30210185C00F085
:1018B0001F0021FA00F080BD80B500F02DF844F241
:1018C000184C43F29833C5F6020CC0F60003DCF85E
:1018D0000020C2F303229A5CDCF8001001F00F0133
:1018E00002F01F02595CD04040F21002C2F20042E6
:1018F00001F01F0120FA01F1116040F20C02C2F266
:1019000000421060DCF80400C0F30220185C00F014
:101910001F0021FA00F080BD44F20041C5F602012B
:101920000869C0F3C200032816D002280ED098BB65
:101930000868800649F20000C0F2D03058BF7047F6
:101940000968C1F3C101C840704700BF47F64000B5
:10195000C0F27D10704700BF8A6A886AC0F3051C18
:10196000C86ABCF1000F4B6B1CD000F00100404274
:1019700000EAD3006FF35F3000EE100A02F00300BC
:101980000228B8EE400A0FD090B90868800613D438
:101990009FED251A1DE000BF40F60010C0F23D008B
:1019A000704700BF002070479FED1E1A11E000BF76
:1019B0009FED1B1A0DE000BF086849F20002C0F25B
:1019C000D032C0F3C10022FA00F001EE100AB8EEE6
:1019D000411A086B9FED153A6FF35F2002EE100A73
:1019E000086BC0F34620B8EE422A013000EE032A0D
:1019F00000EE10CAB7EE003AB8EE400A81EE000AD7
:101A000032EE031A20EE010A01EE100AB8EE411A76
:101A100080EE010ABCEEC00A10EE100A704700BF4B
:101A20000024744A20BCBE4B0024744C00000039D2
:101A300070B3F0B581B00446007844F20046C007A8
:101A4000C5F6020626D12078800740F1C2803069B1
:101A500010F03801B06A3FD0182908BF5FEA8070E3
:101A60003AD0E0683168002862D021F019010843BB
:101A70003060FEF795FD05463068400748D4FEF714
:101A80008FFD401B0228F7D9032001B0F0BD00BF35
:101A900001207047306900F03801B06A102905D084
:101AA00018290BD100F00300022807D13068800309
:101AB000C9D560680028C6D13CE100BF61683068C4
:101AC00000294FD0B1F5A02F44D0B1F5803F5FD1B0
:101AD00040F4803062E000BF30684007E06802D523
:101AE000002800F02781316821F019010843306097
:101AF000FEF756FD054600BF3068400708D4FEF7E4
:101B00004FFD401B02284FF00300F5D901B0F0BD96
:101B1000FEF73EFD41F2030188424FD8206971680B
:101B2000402821F47C3151D141F4003050E000BF15
:101B300021F001003060FEF733FD054630684007B4
:101B400047D5FEF72DFD401B02284FF00300F5D9C5
:101B5000DCE700BF40F480203060306840F4803023
:101B60001CE000BF20F480303060306820F480201A
:101B70003060FEF715FD0546306880037FF563AFE2
:101B8000FEF70EFD401B64284FF00300F4D9BDE7BB
:101B900020F480303060306820F480203060FEF720
:101BA000FFFC0546306880033FF54DAFFEF7F8FCBB
:101BB000401B6428F6D9032001B0F0BD706821698C
:101BC00020F0FE4040EA016002E000BF41EA003040
:101BD00070602078C00654D5306900F03801B06AD2
:101BE000082905D0182919D100F00300012815D1C2
:101BF0003068C00503D5E069802840F09B80FEF77F
:101C0000C7FC41F2030188421ED8206A716820286F
:101C100021F0F84132D141F0804031E0E069002804
:101C2000306819D040F080003060FEF7B9FC0546FE
:101C30003068C005E3D4FEF7B3FC401B02284FF028
:101C40000300F5D962E700BFF068216A20F07C50FC
:101C500040EA0160F06014E020F080003060FEF7A0
:101C60009FFC05463068C0050BD5FEF799FC401B6C
:101C700002284FF00300F5D948E700BF41EA806031
:101C80007060207800073FD42078800656D42078F2
:101C9000400769D4656A9DB3306900F038001828A0
:101CA00040F0A880012DB16A306B43D001F00302EF
:101CB000A36A9A423ED1C1F30511E26A914239D139
:101CC0000146226B6FF35F21013A914232D1C0F39A
:101CD0004622616B01398A422CD1C0F30642A16BC6
:101CE00001398A4226D1C0F30660E16B013988428E
:101CF00020D1706BA16CC0F3CC00814240F03481E4
:101D0000002001B0F0BD00BF60690028706F41D0B5
:101D100040F001007067FEF743FC0546706F8007D6
:101D2000B2D4FEF73DFC401B0228F7D9032001B0D6
:101D3000F0BD00BF012001B0F0BD00BFA0690028C8
:101D4000306845D040F480503060FEF729FC0546ED
:101D5000306880049BD4FEF723FC401B0228F7D98F
:101D6000032001B0F0BD00BFD6F8000440F480703D
:101D7000C6F80004FEF714FC054600BFD6F80004C0
:101D8000C00519D4FEF70CFC401B6428F6D90320CB
:101D900001B0F0BD20F001007067FEF701FC0546C0
:101DA000706F80077FF570AFFEF7FAFB401B0228CB
:101DB0004FF00300F4D9A9E6A168306F002943D0A1
:101DC000052939D0012957D140F001005AE000BF60
:101DD00020F480503060FEF7E3FB05463068800455
:101DE0007FF555AFFEF7DCFB401B02284FF00300E8
:101DF000F4D98BE6306820F080703060FEF7D0FBBD
:101E0000022D05460CD100BF306880014CD5FEF78D
:101E1000C7FB401B02284FF00300F5D976E600BF50
:101E2000306880017FF56CAFFEF7BAFB401B0228DB
:101E30004FF00300F4D969E640F004003067306FDA
:101E400040F001001EE000BF20F001003067306F5D
:101E500020F004003067FEF7A3FB054641F2883707
:101E6000306F80077FF516AFFEF79AFB401BB84234
:101E70004FF00300F4D949E620F001003067306FDD
:101E800020F004003067FEF78BFB054641F28837EF
:101E9000306F80073FF5FEAEFEF782FB401BB84275
:101EA0004FF00300F4D931E604F12807B06A40F29C
:101EB000F33188438ECF0843591E40EA02104FF495
:101EC0007E426FF35F21B06202EB47204FF4FE02C7
:101ED00080B2E36B0844A16B02EB01414FF0FE427C
:101EE00001F4FE0102EB0362084402F0FE410844E3
:101EF0003063F06A4FF6F87120F00100F062706B09
:101F0000A26C884340EAC2007063F06A216C20F042
:101F10000C000843F062F06A616C20F00200084394
:101F2000F062F06A40F48030F062F06A40F4003011
:101F3000F062F06A40F48020F062F06A40F0010044
:101F4000F062306840F080703060FEF729FB044694
:101F5000306880013FF5D4AEFEF722FB001B02285B
:101F60004FF00300F4D9D1E5F06A20F00100F062EF
:101F7000FEF716FB0546FEF713FBA842FBD0706B7D
:101F80004FF6F871A26C884340EAC2007063F06AB1
:101F900040F00100F062002001B0F0BD0000000040
:101FA000411E0020B0EB116F02D00120704700BF2E
:101FB0004EF21002F023CEF2000251604EF6235191
:101FC000CEF200010B700721906011607047000095
:101FD00090F88410012901D1022070472421C0F813
:101FE000881001680A680B6822F0005223F0010390
:101FF0000B60002343660A602021C0F8881080F837
:10200000843000207047000090F88420012A01D11C
:102010000220704770B52422C0F888200268D0F8EA
:1020200064E0BEF1000FD2F800C0136823F0010392
:102030001360936823F0606341EA0301916019D053
:10204000916843F2C03E9368C0F6000E5B0F43F206
:10205000C835C1F34266C0F600051EF80340E95CCE
:102060002301B3FBF1F11EF80630AE5D1B01B3FB9B
:10207000F6F301E001210123A0F86A102021A0F865
:102080006830C2F800C0C0F88810002180F88410C1
:10209000002070BD0000000090F88420012A01D1CA
:1020A0000220704770B52422C0F888200268D0F85A
:1020B00064E0BEF1000FD2F800C0136823F0010302
:1020C0001360936823F0604341EA0301916019D0E3
:1020D000916843F2C03E9368C0F6000E5B0F43F276
:1020E000C835C1F34266C0F600051EF80340E95C3E
:1020F0002301B3FBF1F11EF80630AE5D1B01B3FB0B
:10210000F6F301E001210123A0F86A102021A0F8D4
:102110006830C2F800C0C0F88810002180F8841030
:10212000002070BD0000000010B5D8B10446D0F802
:10213000880028B9002084F88400204600F028F8A0
:102140002420C4F888002068A16A0268002922F0CF
:102150000101016002D0204600F0A6FB204600F0FD
:10216000CBFC08B1012010BD2068416821F49041EA
:102170004160816821F02A018160016841F001011C
:1021800001602046BDE8104000F0FEBB00000000EA
:10219000B0B5B8B0044602A80830B8210025339580
:1021A000CDE93655CDE93455FEF7CAF841F20001C4
:1021B0002068C4F20101884202D038B0B0BD00BF2F
:1021C0000120029002A80395FEF76AFC08B1FEF711
:1021D00003F944F2E040C5F60200016941F0100144
:1021E0000161016901F0100101910199016841F05B
:1021F00002010160006833A900F00200019001981B
:102200004FF440403390022034900020CDE9350057
:102210000420379040F20040C5F60200FEF7E4F8D3
:1022200038B0B0BD000000002DE9F04381B0044695
:10223000D0F88800202807D10120002918BF002AE3
:1022400006D101B0BDE8F083022001B0BDE8F08303
:102250001D460E460020C4F890002120C4F88800D6
:102260001746FEF79DF9A4F854708146A4F85670FD
:10227000A168B1F5805F02D12069002866D0374699
:102280000020B4F856100029216867D06A1C28D0B5
:10229000002D53D0804600BFC86900060AD4FEF75F
:1022A0007FF9A0EB0900A84200F284802168086849
:1022B000F2E700BF17B117F8010B04E038F8020B82
:1022C00000276FF35F208862B4F856000138A4F845
:1022D0005600B4F856000028DED13FE0CA69120665
:1022E00009D4CA69120606D4CA6912065CBFCA6953
:1022F0005FEA0262F2D51FB117F8012B05E000BFBB
:1023000030F8022B00276FF35F228A62B4F8562060
:10231000013AA4F85620B4F85620002AE1D11DE075
:1023200030F8022B00276FF35F228A62B4F8562040
:10233000013AA4F85620B4F856207AB1CA691206B8
:1023400036D5002FECD017F8012BEEE700273046EA
:10235000B4F85610002921687FF498AFC869400688
:102360001ED42DB3681C14D1C86940062AD4C8698C
:10237000400627D4C869400624D4C86940064FF0F7
:102380000000F1D50DE000BF20680168C06940067B
:1023900018D4FEF705F9A0EB0900A842F4D909E02A
:1023A00000202021C4F8881001B0BDE8F08300BFF0
:1023B000FEF7F6F803202021C4F8881001B0BDE82C
:1023C000F08300BF00202021C4F8881001B0BDE8D0
:1023D000F083000000000000FEE7000000000000A5
:1023E00081B044F2E040C5F60200016841F002010C
:1023F0000160006800F002000090009801B0704792
:1024000080B540F2180041F20001C2F20040C4F26F
:1024100001010C2201604FF4E13141600021C0E96B
:1024200002110161C0E90521C0E90711C0E90911E4
:10243000FFF77AFE08B1FDF7CFFF40F21800002148
:10244000C2F20040FFF728FE08B1FDF7C5FF40F2D9
:1024500018000021C2F20040FFF7D6FD08B1FDF7D9
:10246000BBFF40F21800C2F20040FFF7B1FD0028A8
:1024700008BF80BDBDE88040FDF7AEBF0000000092
:10248000FEE7000000000000FEE700000000000082
:102490007047000000000000F0B581B044F22C4706
:1024A000C5F6020757F8042C02F00302032A03D1F1
:1024B000012001B0F0BD00BF054657F82C0C0C46BA
:1024C00020F0806047F82C0CFEF76AF8064600BF43
:1024D00057F82C0C000105D5FEF762F8801B022886
:1024E000F6D964E057F8040CEE6895E80E0020F485
:1024F0007C30012C40EA0130A2F101016FF35F2131
:102500004FF47E4202EB432247F8040C92B24FF0A4
:10251000FE4302EB01004FF4FE012A6901EB064184
:1025200001F4FE0103EB0262084402F0FE4108449C
:10253000F8603868696920F0C00040EA010038603E
:102540003868A96920F0200040EA01003860386846
:102550004FF6F87120F0100038603869EA6920EA17
:1025600001004FF4001140EAC2003861386808BF2A
:102570004FF4801140F01000002C386008BF4FF479
:10258000002138680843386057F82C0C40F0806010
:1025900047F82C0CFEF704F8044600BF57F82C0C43
:1025A000000107D4FDF7FCFF001B0328F6D303202E
:1025B00001B0F0BD002001B0F0BD0000000000003F
:1025C000F0B581B044F22C47C5F6020757F8042C49
:1025D00002F00302032A03D1012001B0F0BD00BFC5
:1025E000054657F82C0C0C4620F0805047F82C0C70
:1025F000FDF7D6FF064600BF57F82C0C800005D526
:10260000FDF7CEFF801B0228F6D964E057F8040CD2
:10261000EE6895E80E0020F07C70012C40EA015035
:10262000A2F101016FF35F214FF47E4202EB4322DE
:1026300047F8040C92B24FF0FE4302EB01004FF456
:10264000FE012A6901EB064101F4FE0103EB02627F
:10265000084402F0FE41084478613868696920F452
:10266000406040EA010038603868A96920F40070D1
:1026700040EA0100386038684FF6F87120F4807045
:102680003860B869EA6920EA01004FF0807140EAD9
:10269000C200B861386808BF4FF4000140F4807090
:1026A000002C386008BF4FF4800138680843386058
:1026B00057F82C0C40F0805047F82C0CFDF770FFB9
:1026C000044600BF57F82C0C800007D4FDF768FFC4
:1026D000001B0328F6D3032001B0F0BD002001B099
:1026E000F0BD000000000000704700000000000086
:1026F000FDF75EBF00000000B0B59CB044F61804C2
:1027000009A84C21C5F60204FDF71AFE0220002597
:10271000CDE90755CDE90555CDE90355CDE901557D
:10272000FEF752F840F22C400095C5F60000016813
:1027300021F001010160006800F0010000902068B4
:1027400040F440402060206800F440400090009831
:102750002068800409D4206880045CBF20685FEA98
:10276000804002D420688004F2D502200990012123
:102770000C91129000250421149132214024CDE9BE
:102780001510CDE917000C200D94CDE9190509A805
:1027900013951B95FFF74CF920B1EFF3108072B63B
:1027A000FEE700BF3F20019003200221CDE9020592
:1027B00008200694CDE904044FF48060CDE90704B5
:1027C00001A8FEF7F5FE28B1EFF3108072B600BF46
:1027D000FEE700BF1CB0B0BD4EF6885042F2000CC0
:1027E000CEF20000C5F2002C016841F470010160D6
:1027F000DCF8000000F00F00062806D8DCF8000026
:10280000072161F30300CCF8000044F200404EF6CB
:102810007F52C5F60200CEF6F622016841F00101B2
:1028200001600021016103681A400260DCF80020A9
:10283000120706D5DCF80020072363F30302CCF867
:10284000002040F200228161C161C0F202220162D7
:1028500082620022C0F2FF12C26240F28022C0F205
:102860000112026341638263C163026441640268CE
:1028700022F480220260016641F20000C5F60040A9
:102880000068B1EB507F05D148F208100121C5F274
:102890000010016044F2000043F2D201C5F20020B2
:1028A0000160704700000000816A0A070CD4CA0763
:1028B00015D18A071ED44A0727D4CA0630D48A06FF
:1028C00039D44A0642D454E00268D0F838C053687C
:1028D00023F4004343EA0C035360CA07E9D00268BB
:1028E000D0F82CC0536823F4003343EA0C03536040
:1028F0008A07E0D50268D0F830C0536823F48033EB
:1029000043EA0C0353604A07D7D50268D0F834C0B5
:10291000536823F4802343EA0C035360CA06CED5E0
:102920000268D0F83CC0936823F4805343EA0C0358
:1029300093608A06C5D50268D0F840C0936823F436
:10294000005343EA0C0393604A0612D50268D0F89C
:1029500044C0BCF5801F536823F4801343EA0C0382
:10296000536006D1536823F4C00C836C43EA0C0314
:102970005360090658BF70470168C06C4A6822F46A
:102980000022104348607047B0B582B00446002072
:10299000C4F89000FDF704FE216805460A68120796
:1029A00037D54FF4001100226FF07E400090204692
:1029B0002B4600F0E5FA58B3206850E8000F216874
:1029C00020F0800041E80002002A1FBF206850E884
:1029D000000F216820F080001CBF41E80002002A9F
:1029E00012D0206850E8000F216820F0800041E8F4
:1029F00000024AB1206850E8000F216820F08000F2
:102A000041E80002002AD7D10320202188226CE06F
:102A10002168086840075FD54FF4800100226FF0FD
:102A20007E40009020462B4600F0AAFA002853D0A2
:102A3000206850E8000F216820F4907041E80002FF
:102A4000F2B1206850E8000F216820F4907041E84E
:102A50000002002A1FBF206850E8000F216820F400
:102A600090701CBF41E80002002A09D0206850E89D
:102A7000000F216820F4907041E80002002AD7D1AD
:102A8000206850E8020F216820F0010041E80202AE
:102A9000002A1FBF206850E8020F216820F00100C3
:102AA0001CBF41E80202002A12D0206850E8020F41
:102AB000216820F0010041E802024AB1206850E894
:102AC000020F216820F0010041E80202002AD7D15C
:102AD000032020218C2208E02020C4F88800C4F8BC
:102AE0008C00002170220020E166A150002184F8B2
:102AF000841002B0B0BD0000F0B583B00446006899
:102B000046F6F31640F6004E22696569D4E90213D1
:102B10000A43E7690168CCF6FF762A433140114346
:102B2000C5F6000E394301604168704521F44051FB
:102B300044F2544C41EA03014160A2694FF2FF4361
:102B40001CBF216A0A438168C1F2FF131940C5F610
:102B5000020C1143816047F2FF72C16AC4F20002A5
:102B600021F00F01656A90424FF0800341EA0501B0
:102B7000C1621FDD40F6FF71C4F2010188423BDDF6
:102B8000704500F0258141F20041C4F20101884204
:102B900005D041F20001C4F20101884244D1DCF8C1
:102BA0000010C1F3C202062A3ED243F28C31C0F6B5
:102BB000000137E044F6FF31C4F2000188420DDC29
:102BC00044F20041C4F20001884221D044F60001E1
:102BD000C4F2000188421BD026E000BF44F6004149
:102BE000C4F20001884213D045F20001C4F2000192
:102BF00088420DD018E000BF47F60001C4F2000182
:102C0000884205D047F60041C4F2000188420BD14A
:102C1000DCF8001001F00702062A05D243F29231D7
:102C2000C0F600018B181B78704540F60010C0F20A
:102C30003D0000F05380B7F5004F40F07B80402B03
:102C40004FF0010100F28F81DFE813F042003801FC
:102C50008D018D0140018D018D018D014C018D0192
:102C60008D018D018D018D018D018D0114018D016D
:102C70008D018D018D018D018D018D018D018D01E4
:102C80008D018D018D018D018D018D0152018D010F
:102C90008D018D018D018D018D018D018D018D01C4
:102CA0008D018D018D018D018D018D018D018D01B4
:102CB0008D018D018D018D018D018D018D018D01A4
:102CC0008D018D018D018D018D018D01300100BFC0
:102CD000FEF7C2FD002840F00A8140E19A1E012162
:102CE0001E2A00F27F80DFE812F01F003E019100F3
:102CF0003E013E013E0197003E013E013E013E0184
:102D00003E013E013E0183003E013E013E013E0187
:102D10003E013E013E013E013E013E013E013E01BB
:102D20003E013E013E019F00FDF776FD002840F088
:102D30007A8014E1402B4FF0010100F21481DFE8AA
:102D400013F04100C10012011201CB001201120167
:102D50001201F300120112011201120112011201FB
:102D60001201A70012011201120112011201120137
:102D700012011201120112011201120112011201BB
:102D80001201F900120112011201120112011201C5
:102D9000120112011201120112011201120112019B
:102DA000120112011201120112011201120112018B
:102DB000120112011201120112011201120112017B
:102DC0001201B900FEF748FD002840F0B280C6E0CD
:102DD000DCF8041001F00702062ABFF425AF66A153
:102DE00020E700BF402B40F0BE804FF400401BE0C6
:102DF0005CF8540C800649F20000C0F2D03013D5C4
:102E00005CF8541CC1F3C101C8400DE06846FDF7F1
:102E100017FD019838B9A2E06846FDF7A9FD0198B1
:102E2000002800F09C80656A43F2A8316268C0F611
:102E3000000131F81510B0FBF1F002EB42018842BD
:102E40004FF00101C0F08F801303984200F28B8095
:102E5000010E0023000210EB520041F10001FDF7CA
:102E600037FA4FF60052A0F54071C0F20F029142BE
:102E700073D377E05CF8540C800649F20000C0F28E
:102E8000D03035D55CF8541CC1F3C101C8402FE0E7
:102E90005CF8540C800649F20000C0F2D03049D5ED
:102EA0005CF8541CC1F3C101C84043E04FF400403A
:102EB0001EE000BF4FF400403CE000BFFEF7FCFC0A
:102EC000A8B94CE0FEF7F8FC98BB48E06846FDF76F
:102ED000B7FC019858B942E06846FDF7B1FC01988B
:102EE00038BB3CE06846FDF743FD0198B8B3656A1E
:102EF00043F2A831C0F6000131F81510B0FBF1F033
:102F000061684A0802EB40004FF6EF72B0FBF1F047
:102F1000A0F11001914225D84FF6F0710140C0F3A5
:102F20004200084419E000BF6846FDF721FD019802
:102F3000A8B1656A43F2A8316268C0F6000131F8B1
:102F40001510B0FBF1F000EB5200B0FBF2F0A0F175
:102F500010014FF6EF72914204D82168C860002139
:102F600001E000BF01214FF00110A0660020C4E97C
:102F70001D00084603B0F0BD020408102040000008
:102F80002DE9F041804600680D46C7693940491B6C
:102F9000B1FA81F14909914225D1069C34B3164614
:102FA000611C29D1C1692940491BB1FA81F1490944
:102FB000B14218D1C1692940491BB1FA81F14909CF
:102FC000B14201BFC1692940491BB1FA81F104BF77
:102FD0004909B14207D1C1692940491BB1FA81F1C0
:102FE0004909B142DED00020BDE8F081FDF7D8FAF2
:102FF0000320BDE8F08100BF1F4607E0C0692840FC
:10300000401BB0FA80F04009B042ECD1FDF7C8FA9D
:10301000C01BA04200F2B680D8F800000168490742
:10302000ECD5402D18BF802DE8D0C169090700F10B
:10303000AD80C1690905E1D54FF400610162D8F89E
:10304000000050E8000FD8F8001020F4907041E81C
:10305000000222B3D8F8000050E8000FD8F80010A2
:1030600020F4907041E80002002A1FBFD8F8000049
:1030700050E8000FD8F8001020F490701CBF41E811
:103080000002002A0BD0D8F8000050E8000FD8F852
:10309000001020F4907041E80002002ACFD14FF6D2
:1030A000FE70CEF6FF70D8F8001051E8021FD8F875
:1030B0000020014042E802130BB3D8F8001051E899
:1030C000021FD8F80020014042E80213002B1FBF66
:1030D000D8F8001051E8021FD8F8002001401CBFAA
:1030E00042E80213002B0AD0D8F8001051E8021F62
:1030F000D8F80020014042E80213002BD3D1D8F8C1
:103100006C0001282FD1D8F8000050E8000FD8F843
:10311000001020F0100041E8000222B3D8F80000AF
:1031200050E8000FD8F8001020F0100041E800022D
:10313000002A1FBFD8F8000050E8000FD8F8001090
:1031400020F010001CBF41E80002002A0BD0D8F884
:10315000000050E8000FD8F8001020F0100041E8FF
:103160000002002ACFD12020C8F88C000021C8F826
:103170006C10C8F87410C8F89000032088F8841008
:10318000BDE8F0810320BDE8F08100BF08210162A5
:10319000D8F8000050E8000FD8F8001020F4907024
:1031A00041E8000222B3D8F8000050E8000FD8F838
:1031B000001020F4907041E80002002A1FBFD8F8E8
:1031C000000050E8000FD8F8001020F490701CBFE9
:1031D00041E80002002A0BD0D8F8000050E8000FA8
:1031E000D8F8001020F4907041E80002002ACFD1F6
:1031F0004FF6FE70CEF6FF70D8F8001051E8021FAF
:10320000D8F80020014042E802130BB3D8F80010B0
:1032100051E8021FD8F80020014042E80213002BB9
:103220001FBFD8F8001051E8021FD8F80020014055
:103230001CBF42E80213002B0AD0D8F8001051E856
:10324000021FD8F80020014042E80213002BD3D11E
:10325000D8F86C0001282FD1D8F8000050E8000FF2
:10326000D8F8001020F0100041E8000222B3D8F88E
:10327000000050E8000FD8F8001020F0100041E8DE
:103280000002002A1FBFD8F8000050E8000FD8F84D
:10329000001020F010001CBF41E80002002A0BD0F3
:1032A000D8F8000050E8000FD8F8001020F0100007
:1032B00041E80002002ACFD12020C8F88C0000206D
:1032C000C8F86C00C8F874000821C8F8901088F895
:1032D00084000120BDE8F081FEE70000000000004E
:1032E00080B582B0019040F21800C2F2004001A9FE
:1032F00001224FF0FF33FEF797FF019802B080BD27
:1033000084B001200090FDF7EFF90020019048F211
:103310001F70029040F2011003906846FDF7B4F967
:103320000420FDF7F1F9FDF753F9FFF7E5F9FFF791
:1033300057F8FFF765F802A4204600F015F8FBE700
:103340003132330D0000000002E008C8121F08C12E
:10335000002AFAD170477047002001E001C1121F16
:10336000002AFBD17047000010B5044601E0FFF7CA
:10337000B7FF14F8010B04490028F8D1BDE810404C
:103380000A20FFF7ADBF0000000000240104081070
:103390002040000408102040000000000102030447
:1033A00001020304060708090100020004000600E8
:1033B00008000A000C0010002000400080000001FE
:1033C00001010103070100000804020408010101D2
:1033D000F033000800000024180000004833000803
:1033E000083400081800002498040000583300082E
:1033F0000000000001000000100000000090D00359
:083400000090D0030000000061
:040000050800029954
:00000001FF
