:020000040800F2
:1000000008050024AD020008012F00087929000826
:10001000F92E0008F1030008513D0008000000001F
:100020000000000000000000000000006131000836
:10003000F903000800000000092F000869310008DA
:10004000C7020008C7020008C7020008C70200086C
:10005000C7020008C7020008C7020008C70200085C
:10006000C7020008C7020008C7020008C70200084C
:10007000C7020008C7020008C7020008C70200083C
:10008000C7020008C7020008C7020008C70200082C
:10009000C7020008C7020008C7020008C70200081C
:1000A000C7020008C7020008C7020008C70200080C
:1000B000C7020008C7020008C7020008C7020008FC
:1000C000C7020008C7020008C7020008C7020008EC
:1000D000C7020008C7020008C7020008C7020008DC
:1000E000C7020008C702000800000000C70200089D
:1000F000C7020008C7020008C7020008C7020008BC
:10010000C7020008C7020008C7020008C7020008AB
:10011000C7020008C7020008C7020008C70200089B
:10012000C7020008C7020008C7020008C70200088B
:10013000C7020008C7020008C7020008C70200087B
:1001400000000000000000000000000000000000AF
:10015000C7020008C7020008C7020008C70200085B
:10016000C7020008C7020008C7020008C70200084B
:10017000C7020008C7020008C7020008C70200083B
:10018000C7020008C7020008C7020008C70200082B
:10019000C7020008C7020008C7020008C70200081B
:1001A000C7020008C7020008C7020008C70200080B
:1001B000C7020008C7020008C7020008C7020008FB
:1001C000C7020008C7020008C7020008C7020008EB
:1001D000C7020008C7020008C7020008C7020008DB
:1001E000C7020008C7020008C7020008C7020008CB
:1001F000C7020008C7020008C7020008C7020008BB
:10020000C7020008C7020008C7020008C7020008AA
:10021000C7020008C7020008C7020008C70200089A
:10022000C7020008C7020008C7020008000000005B
:10023000C7020008C702000800000000C70200084B
:10024000C7020008C7020008C7020008C70200086A
:10025000C7020008C7020008C7020008C70200085A
:10026000C7020008C7020008C7020008C70200084A
:10027000C7020008C7020008C7020008000000000B
:10028000C7020008C7020008C702000800000000FB
:1002900000000000C7020008DFF80CD000F090F862
:1002A00000480047793D00080805002406488047BB
:1002B00006480047FEE7FEE7FEE7FEE7FEE7FEE74B
:1002C000FEE7FEE7FEE7FEE751320008990200086C
:1002D0002DE9F05F0546002092469B46884606467B
:1002E000814640241BE0284641464746224600F00E
:1002F00057F853465A46C01A914110D31146184632
:10030000224600F03EF82D1A67EB01084F462246C0
:100310000120002100F035F817EB00094E41201EA6
:10032000A4F10104DFDC484631462A464346BDE8D5
:10033000F09FD2B201E000F8012B491EFBD27047BA
:100340000022F6E710B513460A4604461946FFF7A1
:10035000F0FF204610BD30B50B460146002020229C
:10036000012409E021FA02F59D4205D303FA02F5C2
:10037000491B04FA02F52844151EA2F10102F1DC22
:1003800030BD202A04DB203A00FA02F10020704739
:100390009140C2F1200320FA03F3194390407047C3
:1003A000202A04DB203A21FA02F00021704721FACA
:1003B00002F3D040C2F12002914008431946704731
:1003C0001CB509480090094801900546009C06E0CC
:1003D000E06840F0010394E8070098471034AC420D
:1003E000F6D3FFF75DFF000000430008204300083C
:1003F000FEE7000000000000704700000000000061
:10040000EFF3108072B600BFFEE7000000000000AE
:100410002DE9F04F83B00F68002F00F0C98000F184
:10042000264642F2004506F1FF76C5F602050A228D
:10043000A8424FEAB62540F2040C08BF092200F199
:1004400020030093092DC5F6000C38BF4FEAB622F1
:10045000002400264FF0000801920AE008F101088C
:100460000F6837FA08F206F1020604F1040400F0FE
:100470009F80012202FA08FE17EA0E09EED0D1F899
:1004800004B003220BF00307B2407D1E6FEA020A9C
:10049000012D11D88268CD6802EA0A02B5402A43CC
:1004A0008260CBF30015426822EA0E0205FA08F5D5
:1004B0002A43426004E000BF032F01D103271FE05D
:1004C000C2688D6802EA0A02B540022F42EA0502BC
:1004D000C26015D16FF0030204F01C0502EA580B4C
:1004E000009A0F2352F80BE0AB400F692EEA03038A
:1004F000AF403B4342F80B30D1F804B00BF0030798
:10050000026807FA06F302EA0A021BF4403F42EAD5
:1005100003020260A2D044F2F44340F2084EC5F652
:100520000203C5F6000E0F251A6842F002021A6097
:100530001A6802F00202029228F00302029B04F001
:100540000C0352F80E709D40AF43019D05FA03F372
:100550003B4342F80E304FF0B04EDEF800204B68BF
:1005600042EA0907DD0258BF22EA09079D02CEF8D8
:100570000070DCF8002042EA090758BF22EA0907A8
:100580009D03CCF80070DCF8802042EA090758BFD0
:1005900022EA0907DB03CCF88070DCF87C2042EA11
:1005A000090758BF22EA0907CCF87C7056E700BF5C
:1005B00003B0BDE8F08F00000069084018BF0120BB
:1005C000704700000000000041F20000C5F6004046
:1005D0000068000C7047000040F20010C2F20040BA
:1005E000006870470000000090F84120202A03D1E5
:1005F00090F84020012A01D102207047242280F87F
:1006000041200268136823F001031360136823F488
:1006100080531360136819431160116841F00101A0
:100620001160202180F84110002180F84010002046
:10063000704700000000000090F84120202A03D1FC
:1006400090F84020012A01D102207047242280F82E
:1006500041200268136823F001031360136823F438
:10066000706343EA01211160116841F001011160DA
:10067000202180F84110002180F8401000207047B0
:1006800010B310B590F8411031B9002180F8401036
:10069000044600F011FA2046242180F8411090E829
:1006A0001210C3680A68012B22F001020A6024F0CC
:1006B00070620A618A6822F400428A6006D14CF4B2
:1006C00000428A600CE000BF01207047022B4CF40E
:1006D00004428A6004D14A6842F4006203E000BF29
:1006E0004A6822F400624A6000F1100C4A6842F045
:1006F000007242F400424A60CA6822F40042CA60B2
:100700009CE81C101A4342EA0422CA60026A42EAC8
:100710000C020A600A6842F001020A60002141648A
:10072000202280F84120016380F84210002010BD93
:100730002DE9F04782B0044690F84100202803D10B
:1007400094F84000012803D1022002B0BDE8F087F0
:100750000D4617469846012084F84000FFF73CFFFD
:10076000216806468A69120425D4222084F84100B3
:10077000102084F8420000206064676249F6000C93
:10078000A4F82A8040F200086063CFF6004C608D28
:10079000C0F2FF18B0F5807F26D32B4651F8040F26
:1007A0006FF39F2300EA0C0708F51050FF2228E0A2
:1007B00088690004D9D519212046324602F0E0F8B4
:1007C000002871D1FFF708FF801B21681A28EFD39A
:1007D00088690004ECD5606C40F020006064202043
:1007E00084F84100012070E0628D28466FF39F205D
:1007F000D3B240EA034751F8040F00EA0C0308F5AE
:1008000092303B430A9F184308602285608D002880
:1008100044D06FF39F254FF0FF090CF5806A10E07C
:10082000618D20682185C9B250F8042F02EA0A02BE
:1008300042EA01414FF00072294311430160608D8B
:1008400060B320463946324602F0BEF960BB2068EC
:10085000616A406A0870218D606A01306062481EDA
:100860002085618D01396185618D0029E7D0000403
:10087000E5D18021002220463B46009602F030F967
:1008800090B9608DB0F5807FCAD32068A4F8289015
:10089000424650F8041F01EA0A01CDE720463946D6
:1008A000324602F001FA18B1012002B0BDE8F0872B
:1008B000206820214EF60003C161CFF60063426834
:1008C0001A404260002084F84110002184F8421050
:1008D00084F8401002B0BDE8F0870000000000007E
:1008E0002DE9F04782B0044690F84100202803D15A
:1008F00094F84000012803D1022002B0BDE8F0873F
:100900000D4698461746012084F84000FFF764FE24
:10091000216806468A6912041BD4212084F841000C
:10092000102084F8420000206064676249F6000CE1
:10093000A4F82A80CFF6004C6063608DB0F5807F0C
:1009400022D3FF2222854FF0807324E088690004BF
:10095000E3D519212046324602F012F8002840F073
:100960008580FFF739FE801B21681A28EED388693D
:100970000004EBD5606C40F020006064202084F817
:100980004100012083E000BF628D2285002A00F033
:1009900087804FF0007317F8010B88626762608DE3
:1009A00001386085501E2085D2B228466FF39F2003
:1009B00040EA02404A68184302EA0C02104340F43D
:1009C000005048600A9F608D002849D06FF39F2532
:1009D00040F2000A4FF0FF080CF58069C0F2FF1AE0
:1009E00011E000BF618D20682185C9B250F8042F45
:1009F00002EA090242EA01414FF000722943114321
:100A00000160608D60B320463946324602F08CF9B1
:100A100060BB606A216810F8012B8A626062608D99
:100A200001386085208D01382085618D0029E8D04E
:100A30000004E6D18021002220463B46009602F0C9
:100A40004FF898B9608DB0F5807FCBD32068A4F8BB
:100A50002880524650F8041F01EA0901CEE700BF82
:100A600020463946324602F01FF918B1012002B083
:100A7000BDE8F087206820214EF60003C161CFF663
:100A8000006342681A404260002084F8411000214F
:100A900084F8421084F8401002B0BDE8F08700BF2F
:100AA000486808222B4600EA0C0062F39F23184393
:100AB00040F0007085E70000B0B5B8B0044602A869
:100AC0000830B82100253395CDE93655CDE93455A8
:100AD000FFF736FC45F200412068C4F2000188426D
:100AE00002D038B0B0BD00BF0820029002A8039524
:100AF00000F0A6FA08B1FFF783FC44F2E04433A902
:100B0000C5F60204206840F002002060206800F072
:100B1000020001900198C0203390122034900020F0
:100B2000CDE935000420379040F20040C5F60200C0
:100B3000FFF76EFCA06840F40010A060A06800F40D
:100B400000100190019838B0B0BD00000000000016
:100B500040F2040040F20011C2F20040C2F2004133
:100B600000780A6810440860704700000000000028
:100B700080B5032000F0E8F801F09EF944F2184136
:100B800044F2B823C5F60201C0F600030A68C2F3B6
:100B900003229A5C096801F00F0102F01F02595C00
:100BA000D04040F21002C2F2004201F01F0120FAD0
:100BB00001F1116040F20C01C2F2004108600F2007
:100BC00000F00AF800281CBF012080BD00F07CF86E
:100BD000002080BD00000000B0B540F20405C2F264
:100BE00000452978F1B1044640F20C00C2F2004001
:100BF0004FF47A72B2FBF1F10068B0FBF1F001F052
:100C00009FFC0F2C01464FF001000AD8002918BFA5
:100C1000B0BD4FF0FF300022214600F065F8002003
:100C20006C60B0BD0120B0BD10B54EF6A05E43783B
:100C3000CEF2000E90F800C04EF8083CDEF800300E
:100C400023F00103CEF8003043684EF8043C037BE8
:100C5000C27A817A447B120642EA0372837B42EABB
:100C6000C141C27B41EA8441447A41EA4341007A6E
:100C700041EA024141EA042141EA400040EA0C0015
:100C8000CEF8000010BD00004EF62450CEF2000059
:100C9000BFF35F8F016821F480310160002101679B
:100CA00070470000000000004EF6245140F00100A3
:100CB000CEF200010867086840F480300860BFF396
:100CC0004F8FBFF36F8F704781B044F2F440C5F689
:100CD0000200016841F002010160006800F00200BA
:100CE0000090009801B0704770B54EF60C5C4FF064
:100CF000FF36CEF2000C00F1604505F56445DCF8E6
:100D00000030C3F3022E8EF00703042B28BF042308
:100D1000BEF1030406FA03F321EA030100F00F0316
:100D200038BF0024043B0028634406FA04F048BF9F
:100D300003F10C05A14022EA0000084300012870DD
:100D400070BD0000000000004EF60C514FF6FF038E
:100D5000CEF200010A681A4060F30A2242F0806075
:100D600040F0FD7008607047B0B544F60C05C5F65C
:100D7000020529684907296806D401F00701081A05
:100D800018BF0120B0BD00BF21F007010843286053
:100D9000FFF722FC044600BF55F8080C800407D476
:100DA000FFF71AFC001BB0F57A7FF5D90120B0BD22
:100DB0000020B0BD0000000080B500F0F5FF44F257
:100DC000204144F2B822C5F60201C0F600020968CB
:100DD000C1F30211515C01F01F01C84080BD000049
:100DE00080B544F2384EC5F6020E5EF8103C5EF84F
:100DF000101C5EF80C2CC1F3053CDEF80410BCF1AD
:100E0000000F15D0C908D20601EAE2716FF35F3115
:100E100000EE101A03F003010229B8EE400A0DD0CB
:100E200081B95EF8381C890610D49FED361A1BE094
:100E300000218160C0E9001180BD00BF9FED301A24
:100E400012E000BF9FED2D1A0EE000BF5EF8381CC7
:100E500049F20002C0F2D032C1F3C10122FA01F11D
:100E600001EE101AB8EE411ADEF800109FED263A96
:100E70006FF35F2102EE101ADEF80010C1F3462175
:100E8000B8EE422A00EE032A00EE10CAB7EE003A8E
:100E9000B8EE400A81EE000A32EE031A02EE101A92
:100EA000B8EE422A20EE010A32EE031A80EE011A51
:100EB000BCEEC11A80ED001ADEF80010C1F3064145
:100EC00001EE101AB8EE411A31EE031A80EE011A43
:100ED000BCEEC11A80ED011ADEF80010C1F3066104
:100EE00001EE101AB8EE411A31EE031A80EE010A33
:100EF000BCEEC00A10EE101A816080BD0024744A56
:100F000020BCBE4B0024744C0000003900000000DF
:100F100080B544F2404EC5F6020E5EF8183C5EF80D
:100F2000181C5EF8142CC1F3055CDEF80410BCF14B
:100F3000000F15D0C908D20501EAE2716FF35F31E5
:100F400000EE101A03F003010229B8EE400A0DD09A
:100F500081B95EF8401C890610D49FED361A1BE05B
:100F600000218160C0E9001180BD00BF9FED301AF3
:100F700012E000BF9FED2D1A0EE000BF5EF8401C8E
:100F800049F20002C0F2D032C1F3C10122FA01F1EC
:100F900001EE101AB8EE411ADEF800109FED263A65
:100FA0006FF35F2102EE101ADEF80010C1F3462144
:100FB000B8EE422A00EE032A00EE10CAB7EE003A5D
:100FC000B8EE400A81EE000A32EE031A02EE101A61
:100FD000B8EE422A20EE010A32EE031A80EE011A20
:100FE000BCEEC11A80ED001ADEF80010C1F3064114
:100FF00001EE101AB8EE411A31EE031A80EE011A12
:10100000BCEEC11A80ED011ADEF80010C1F30661D2
:1010100001EE101AB8EE411A31EE031A80EE010A01
:10102000BCEEC00A10EE101A816080BD0024744A24
:1010300020BCBE4B0024744C0000003900000000AE
:101040002DE9F0470446C07844F22C480007C5F665
:10105000020828D5A06E4FEA305103292AD8DFE8CC
:1010600001F0030B131B00BFD8F8001041F400314E
:10107000C8F8001010E000BF04F10800022101F0E0
:1010800047FF064680B906E004F12800022101F07E
:10109000D3FF064640B9A06ED8F8241021F44011C1
:1010A0000843C8F8240000266078C00706D13546FA
:1010B0002FE000BF01266078C007F8D0A06D04289B
:1010C00058D83546DFE800F004140E0B0B0000BFC3
:1010D000D8F80000354640F40030C8F800002F462C
:1010E000C5B90DE004F12800002101F0A5FF04E0DE
:1010F00004F10800002101F00BFF05462F464DB911
:10110000D8F82400A16D20F0070000250843C8F896
:10111000240037466078800731D5E06D4FEAB01083
:1011200004285FD8DFE800F004140E0A0A0000BFAC
:10113000D8F8000040F40030C8F800002E46FDB991
:101140000EE000BF04F12800002101F075FF04E06B
:1011500004F10800002101F0DBFE05462E467DB9B2
:10116000D8F82400E16D20F4E07000250843C8F8A9
:10117000240004E00125012760788007CDD43E4695
:101180006078400733D5D4F8A8004FEA705004289F
:1011900060D8DFE800F003130D090900D8F800005B
:1011A00040F40030C8F80000A9460DBB0EE000BFB7
:1011B00004F12800002101F03FFF04E004F10800E1
:1011C000002101F0A5FE0546A9468DB9D8F82C00EE
:1011D000D4F8A81020F4600000250843C8F82C00BB
:1011E00005E000BF0125012660784007CBD4B14659
:1011F0006078000734D5D4F8AC004FEA306004289A
:101200005ED8DFE800F003130D090900D8F80000EC
:1012100040F40030C8F800002F4615BB0EE000BFB8
:1012200004F12800002101F007FF04E004F10800A8
:10123000002101F06DFE05462F4695B9D8F82C0027
:10124000D4F8AC1020F0E06000250843C8F82C006A
:1012500006E000BF01254FF0010960780007CAD4FD
:101260004F46E078800730D5E06C4FEA3010032815
:1012700020D8DFE800F00903150900BFD8F8000006
:1012800040F40030C8F800002E46ADB9D8F8200070
:10129000E16C20F0300000250843C8F8200014E07D
:1012A00004F10800022101F033FE05462E461DB967
:1012B000ECE700BF012501266078C00609D434E0C0
:1012C00001250127E0788007CED43E466078C0062D
:1012D0002BD5206E4FEA3030042839D8DFE800F0F3
:1012E00004140E0A0A0000BFD8F8000040F40030D1
:1012F000C8F800002F46CDB90EE000BF04F1280069
:10130000002101F099FE04E004F10800002101F041
:10131000FFFD05462F464DB9D8F82400216E20F474
:10132000E04000250843C8F824003746607880066E
:1013300035D5606E4FEA3040052815D8DFE800F05B
:10134000041A0E04040400BF2E46DDB91EE000BFDF
:101350000125012760788006EBD420E004F1280005
:10136000012101F069FE0AE00125012660784006AE
:1013700019D449E004F10800012101F0C9FD054636
:101380002E461DB1607840060DD43DE0D8F824000B
:10139000616E20F4E02000250843C8F824003E4692
:1013A0006078400630D5D4F8B0004FEA3070052898
:1013B0000ED8DFE800F00313070303032F46ADB98F
:1013C00018E000BF04F12800012101F035FE0AE019
:1013D00001250127607800061AD43CE004F10800DA
:1013E000012101F095FD05462F461DB160780006EC
:1013F0000ED430E0D8F82C00D4F8B01020F0E04043
:1014000000250843C8F82C0037466078000622D52E
:10141000206F58B1B0F1005F0CD0B0F1805F37D1D0
:10142000D8F8000040F40030C8F800002E469DB9FE
:1014300008E000BF04F10800012101F069FD054644
:101440002E464DB9D8F82400216F20F040500025D9
:101450000843C8F824003E46E078C0071DD0A06CC1
:10146000032855D8DFE800F008024A08D8F8000041
:1014700040F40030C8F80000A9467DB9D8F8200033
:10148000A16C20F0030000250843C8F8200004E008
:1014900001250126E078C007E1D1B146A0784006D9
:1014A00002D44F4618E000BFD8F8D40340F480704F
:1014B000C8F8D403FFF790F8064600BFD8F8D40365
:1014C000C00507D4FFF788F8801B6428F6D90325E8
:1014D000032701E02F46FDB12078C00700F06F80A0
:1014E000E06F4FEAF00005284ED8DFE800F0035324
:1014F00047030303002D2E4654D157E004F10800A2
:10150000022101F005FD0546002DA946C6D1B5E72B
:1015100001254FF00109C1E7D8F84410D4F8B40010
:10152000414011F4407F11D0D8F84410D8F844203D
:1015300042F48032C8F84420D8F8442021F44071A5
:1015400022F48032C8F84420C8F84410B0F5807FF7
:1015500040F0E082FFF740F8064641F2883A032562
:10156000032700BFD8F84400800700F1D182FFF7BD
:1015700033F8801B5045F5D9AEE700BF04F12800D1
:10158000012101F059FD0AE001250126207880079C
:1015900019D446E004F10800012101F0B9FC054628
:1015A0002E461DB1207880070DD43AE0D8F82800E7
:1015B000E16F20F0380000250843C8F828003E46B7
:1015C000207880072DD5A06F05280FD8DFE800F020
:1015D00004140804040400BF2F46ADB918E000BF8E
:1015E00004F12800012101F027FD0AE0012501276F
:1015F0002078400719D447E004F10800012101F0E8
:1016000087FC05462F461DB1207840070DD43BE0EE
:10161000D8F82800A16F20F0070000250843C8F87B
:1016200028003746207840072ED5D4F894000528A6
:101630000ED8DFE800F00313070303032E46ADB90D
:1016400018E000BF04F12800012101F0F5FC0AE0D8
:1016500001250126207880061AD44BE004F1080009
:10166000012101F055FC05462E461DB1207880066B
:101670000ED43FE0D8F82C00D4F8941020F00700E6
:1016800000250843C8F82C003E462078800631D556
:10169000D4F890004FEA307005280FD8DFE800F04A
:1016A00004140804040400BF2F46ADB918E000BFBD
:1016B00004F12800022101F0BFFC0AE00125012706
:1016C000207840061AD44BE004F10800002101F014
:1016D0001FFC05462F461DB1207840060ED43FE082
:1016E000D8F82800D4F8901020F0E04000250843F6
:1016F000C8F8280037462078400631D5D4F89C0039
:101700004FEAB02005280FD8DFE800F004140804E1
:10171000040400BF2E46ADB918E000BF04F1280054
:10172000022101F089FC0AE001250126207800064B
:101730001AD44EE004F10800002101F0E9FB05464F
:101740002E461DB1207800060ED442E0D8F82C00B9
:10175000D4F89C1020F4E05000250843C8F82C0071
:101760003E462078000634D5D4F8A0004FEA703009
:10177000052815D8DFE800F0041A0E04040400BFA1
:101780002F46E5B12068010727D4C1063ED40003E7
:1017900055D477E004F12800022101F04DFC0AE065
:1017A0000125012720680107EFD516E004F10800A4
:1017B000002101F0ADFB0546002D2F46E2D1D8F8FF
:1017C0002C00D4F8A01020F4604000250843C8F88D
:1017D0002C00374620680107D7D5D4F88400B0F52F
:1017E000805F09D104F12800022101F025FC0028C6
:1017F00018BF0127D4F88400D8F8281021F44051EC
:101800000843C8F828002068C106C0D5D4F898005D
:10181000B0F5807F09D104F12800022101F00CFC11
:10182000002818BF0127D4F89800D8F82C1021F40C
:1018300040710843C8F82C002068000322D5D4F872
:10184000A400B0F5003F11D0B0F5803F08D00028CB
:1018500044D104F10800002101F05AFB05E000BF6B
:1018600004F12800022101F0E7FB05462E4655B998
:10187000D8F82C00D4F8A41020F4403000250843F8
:10188000C8F82C003E46A07840072CD5D4F8880034
:10189000B0F5401F0BD0B0F5001F0BD0B0F5801F86
:1018A0002AD1D8F8000040F40030C8F800002F46D4
:1018B000D5B907E004F12800012101F0BDFB054680
:1018C0002F468DB9D8F82800D4F8881020F440109D
:1018D00000250843C8F8280005E000BF01250126BF
:1018E000A0784007D2D43746A078C00709D13E4639
:1018F0002168880015D532E001250127A078C007AE
:10190000F5D0206DB0F5803F10D018BBD8F800009E
:1019100040F40030C8F800002E4685B121688800E8
:101920001DD460688A0326D469E000BF04F1080072
:10193000022101F0EDFA0546002D2E46EED1D8F831
:101940002000216D20F4803000250843C8F82000D5
:10195000CDE700BF0125012621688800E1D504F10B
:101960002800022101F068FB002818BF0126D4E9F5
:1019700000108A0343D5D4F880206FF0010303EBF5
:101980003223022B0BD34FEA322343B1012B40F019
:10199000B980D8F8003043F40033C8F800303DB3C4
:1019A000CA022FD4CA0037D48A0240D44A0048D48D
:1019B000CA0F55D109025DD4C10766D181076FD422
:1019C000410779D4010700F18380C10600F18C80C2
:1019D000800607D504F12800022101F02DFB002824
:1019E00018BF0125002D18BF01252846BDE8F08746
:1019F000D8F8283023F440731A43C8F82820354615
:101A0000CA02CFD5D8F82420636F22F000421A43CF
:101A1000C8F82420CA00C7D558F81C2CD4F8B83010
:101A200022F480421A4348F81C2C8A02BED5D8F80A
:101A30002420E36E22F080721A43C8F824204A0062
:101A4000B6D558F81C2C22F4004248F81C2CD4F8C7
:101A5000BC2058F81C3C1A4348F81C2CCA0FA9D0CB
:101A6000D8F82020636D22F040521A43C8F8202095
:101A70000902A1D5D8F82810D4F88C2021F440010F
:101A80001143C8F82810C10798D004F108000021BC
:101A900001F03EFA002818BF0546606881078FD51F
:101AA00004F10800012101F033FA002818BF0546AF
:101AB000606841077FF586AF04F10800022101F05C
:101AC00027FA002818BF0546606801077FF57DAF3B
:101AD00004F12800002101F0AFFA002818BF0546E4
:101AE0006068C1067FF574AF04F12800012101F0A0
:101AF000A3FA002818BF0546606880063FF56AAF64
:101B000070E700BF0125CA027FF54CAF7AE700BF3E
:101B1000D4F8B4004FF6CF7358F81C2CC0F2FF0372
:101B200000F4407122F47C5203EA10136FF31F306B
:101B3000B1F5407F08BF1A43002548F81C2CD8F89F
:101B400044100843C8F84400FFF7ABBC0000000095
:101B50002DE9F04381B0002800F0208142F2000915
:101B60000446C5F20029D9F8000000F00F008842B1
:101B70000DD2D9F8000020F00F000843C9F800008A
:101B8000D9F8000000F00F00884240F0078120687B
:101B900044F218464207C5F602060AD522693368A0
:101BA00003F070039A4204D9336823F070031A4398
:101BB000326002070AD56269736803F070039A42C3
:101BC00004D9736823F070031A437260C2060AD501
:101BD000A269736803F4E0639A4204D9736823F43A
:101BE000E0631A43726082060AD5E269B36803F0C3
:101BF00070039A4204D9B36823F070031A43B260A9
:101C000010F002020AD0E368376807F00F07BB4202
:101C100004D9376827F00F073B433360C3073FD031
:101C2000306820F47062D4E901031A43326001285D
:101C300056F8182C0AD0032804D002280AD192039F
:101C40000BD4ABE0920108D4A8E000BFD20504D4C5
:101C5000A4E000BF520740F1A180884656F8081C56
:101C600021F00701084346F8080CFEF7B5FC0546CD
:101C700041F2883756F8080C616800F03800B0EB84
:101C8000C10F09D0FEF7A8FC401BB842F2D90320CF
:101C900001B0BDE8F08300BF2068414600F00202B9
:101CA00052B1E268336803F00F039A4204D23368FA
:101CB00023F00F031A433260D9F8002002F00F021C
:101CC0008A420CD9D9F8002022F00F020A43C9F841
:101CD0000020D9F8002002F00F028A425ED14107AD
:101CE0000AD52169326802F07002914204D232684A
:101CF00022F070021143316001070AD561697268F0
:101D000002F07002914204D2726822F07002114314
:101D10007160C1060AD5A169726802F4E06291425D
:101D200004D2726822F4E0621143716080060AD521
:101D3000E069B16801F07001884204D2B16821F015
:101D400070010843B06000F0B7F8316844F2B8227F
:101D5000C0F60002C1F30321515C336803F00F03A6
:101D600001F01F01D25C20FA01F102F01F0040F2E5
:101D70001002C2F2004221FA00F0106040F20800A6
:101D800040F20C02C2F20040C2F200420068116050
:101D900001B0BDE8F043FEF71FBF00BF012001B056
:101DA000BDE8F0830000000080B500F085F844F243
:101DB000184144F2B823C5F60201C0F600030A68D0
:101DC000C2F303229A5C096801F00F0102F01F02BE
:101DD000595C20FA02F201F01F0040F21001C2F239
:101DE000004122FA00F0086040F20C01C2F200410A
:101DF0000A6080BD0000000080B500F05DF844F28C
:101E0000184C44F2B823C5F6020CC0F60003DCF807
:101E10000020C2F303229A5CDCF8001001F00F01ED
:101E200002F01F02595CD04040F21002C2F20042A0
:101E300001F01F0120FA01F1116040F20C02C2F220
:101E400000421060DCF80400C0F30210185C00F0DF
:101E50001F0021FA00F080BD80B500F02DF844F29B
:101E6000184C44F2B823C5F6020CC0F60003DCF8A7
:101E70000020C2F303229A5CDCF8001001F00F018D
:101E800002F01F02595CD04040F21002C2F2004240
:101E900001F01F0120FA01F1116040F20C02C2F2C0
:101EA00000421060DCF80400C0F30220185C00F06F
:101EB0001F0021FA00F080BD44F20041C5F6020186
:101EC0000869C0F3C200032816D002280ED098BBC0
:101ED0000868800649F20000C0F2D03058BF704751
:101EE0000968C1F3C101C840704700BF47F6400010
:101EF000C0F27D10704700BF8A6A886AC0F3051C73
:101F0000C86ABCF1000F4B6B1CD000F001004042CE
:101F100000EAD3006FF35F3000EE100A02F0030016
:101F20000228B8EE400A0FD090B90868800613D492
:101F30009FED251A1DE000BF40F60010C0F23D00E5
:101F4000704700BF002070479FED1E1A11E000BFD0
:101F50009FED1B1A0DE000BF086849F20002C0F2B5
:101F6000D032C0F3C10022FA00F001EE100AB8EE40
:101F7000411A086B9FED153A6FF35F2002EE100ACD
:101F8000086BC0F34620B8EE422A013000EE032A67
:101F900000EE10CAB7EE003AB8EE400A81EE000A31
:101FA00032EE031A20EE010A01EE100AB8EE411AD1
:101FB00080EE010ABCEEC00A10EE100A704700BFA6
:101FC0000024744A20BCBE4B0024744C000000392D
:101FD00070B3F0B581B00446007844F20046C00703
:101FE000C5F6020626D12078800740F1C28030690C
:101FF00010F03801B06A3FD0182908BF5FEA80703E
:102000003AD0E0683168002862D021F01901084315
:102010003060FEF7E1FA05463068400748D4FEF725
:10202000DBFA401B0228F7D9032001B0F0BD00BF46
:1020300001207047306900F03801B06A102905D0DE
:1020400018290BD100F00300022807D13068800363
:10205000C9D560680028C6D13CE100BF616830681E
:1020600000294FD0B1F5A02F44D0B1F5803F5FD10A
:1020700040F4803062E000BF30684007E06802D57D
:10208000002800F02781316821F0190108433060F1
:10209000FEF7A2FA054600BF3068400708D4FEF7F5
:1020A0009BFA401B02284FF00300F5D901B0F0BDA8
:1020B000FEF78AFA41F2030188424FD8206971681D
:1020C000402821F47C3151D141F4003050E000BF70
:1020D00021F001003060FEF77FFA054630684007C6
:1020E00047D5FEF779FA401B02284FF00300F5D9D7
:1020F000DCE700BF40F480203060306840F480307E
:102100001CE000BF20F480303060306820F4802074
:102110003060FEF761FA0546306880037FF563AFF3
:10212000FEF75AFA401B64284FF00300F4D9BDE7CC
:1021300020F480303060306820F480203060FEF77A
:102140004BFA0546306880033FF54DAFFEF744FA81
:10215000401B6428F6D9032001B0F0BD70682169E6
:1021600020F0FE4040EA016002E000BF41EA00309A
:1021700070602078C00654D5306900F03801B06A2C
:10218000082905D0182919D100F00300012815D11C
:102190003068C00503D5E069802840F09B80FEF7D9
:1021A00013FA41F2030188421ED8206A7168202880
:1021B00021F0F84132D141F0804031E0E06900285F
:1021C000306819D040F080003060FEF705FA05460F
:1021D0003068C005E3D4FEF7FFF9401B02284FF03A
:1021E0000300F5D962E700BFF068216A20F07C5057
:1021F00040EA0160F06014E020F080003060FEF7FB
:10220000EBF905463068C0050BD5FEF7E5F9401B34
:1022100002284FF00300F5D948E700BF41EA80608B
:102220007060207800073FD42078800656D420784C
:10223000400769D4656A9DB3306900F038001828FA
:1022400040F0A880012DB16A306B43D001F0030249
:10225000A36A9A423ED1C1F30511E26A914239D193
:102260000146226B6FF35F21013A914232D1C0F3F4
:102270004622616B01398A422CD1C0F30642A16B20
:1022800001398A4226D1C0F30660E16B01398842E8
:1022900020D1706BA16CC0F3CC00814240F034813E
:1022A000002001B0F0BD00BF60690028706F41D010
:1022B00040F001007067FEF78FF90546706F8007E8
:1022C000B2D4FEF789F9401B0228F7D9032001B0E8
:1022D000F0BD00BF012001B0F0BD00BFA069002823
:1022E000306845D040F480503060FEF775F90546FF
:1022F000306880049BD4FEF76FF9401B0228F7D9A1
:10230000032001B0F0BD00BFD6F8000440F4807097
:10231000C6F80004FEF760F9054600BFD6F80004D1
:10232000C00519D4FEF758F9401B6428F6D90320DC
:1023300001B0F0BD20F001007067FEF74DF90546D1
:10234000706F80077FF570AFFEF746F9401B0228DB
:102350004FF00300F4D9A9E6A168306F002943D0FB
:10236000052939D0012957D140F001005AE000BFBA
:1023700020F480503060FEF72FF905463068800465
:102380007FF555AFFEF728F9401B02284FF00300F8
:10239000F4D98BE6306820F080703060FEF71CF9CD
:1023A000022D05460CD100BF306880014CD5FEF7E8
:1023B00013F9401B02284FF00300F5D976E600BF61
:1023C000306880017FF56CAFFEF706F9401B0228EC
:1023D0004FF00300F4D969E640F004003067306F35
:1023E00040F001001EE000BF20F001003067306FB8
:1023F00020F004003067FEF7EFF8054641F2883719
:10240000306F80077FF516AFFEF7E6F8401BB84245
:102410004FF00300F4D949E620F001003067306F37
:1024200020F004003067FEF7D7F8054641F2883700
:10243000306F80073FF5FEAEFEF7CEF8401BB84286
:102440004FF00300F4D931E604F12807B06A40F2F6
:10245000F33188438ECF0843591E40EA02104FF4EF
:102460007E426FF35F21B06202EB47204FF4FE0221
:1024700080B2E36B0844A16B02EB01414FF0FE42D6
:1024800001F4FE0102EB0362084402F0FE4108443D
:102490003063F06A4FF6F87120F00100F062706B63
:1024A000A26C884340EAC2007063F06A216C20F09D
:1024B0000C000843F062F06A616C20F002000843EF
:1024C000F062F06A40F48030F062F06A40F400306C
:1024D000F062F06A40F48020F062F06A40F001009F
:1024E000F062306840F080703060FEF775F80446A6
:1024F000306880013FF5D4AEFEF76EF8001B02286D
:102500004FF00300F4D9D1E5F06A20F00100F06249
:10251000FEF762F80546FEF75FF8A842FBD0706B45
:102520004FF6F871A26C884340EAC2007063F06A0B
:1025300040F00100F062002001B0F0BD000000009A
:10254000411E0020B0EB116F02D00120704700BF88
:102550004EF21002F023CEF2000251604EF62351EB
:10256000CEF200010B7007219060116070470000EF
:1025700090F88410012901D1022070472421C0F86D
:10258000881001680A680B6822F0005223F00103EA
:102590000B60002343660A602021C0F8881080F891
:1025A000843000207047000090F88420012A01D177
:1025B0000220704770B52422C0F888200268D0F845
:1025C00064E0BEF1000FD2F800C0136823F00103ED
:1025D0001360936823F0606341EA0301916019D0AE
:1025E000916844F2E02E9368C0F6000E5B0F44F24F
:1025F000E825C1F34266C0F600051EF80340E95C19
:102600002301B3FBF1F11EF80630AE5D1B01B3FBF5
:10261000F6F301E001210123A0F86A102021A0F8BF
:102620006830C2F800C0C0F88810002180F884101B
:10263000002070BD0000000090F88420012A01D124
:102640000220704770B52422C0F888200268D0F8B4
:1026500064E0BEF1000FD2F800C0136823F001035C
:102660001360936823F0604341EA0301916019D03D
:10267000916844F2E02E9368C0F6000E5B0F44F2BE
:10268000E825C1F34266C0F600051EF80340E95C88
:102690002301B3FBF1F11EF80630AE5D1B01B3FB65
:1026A000F6F301E001210123A0F86A102021A0F82F
:1026B0006830C2F800C0C0F88810002180F884108B
:1026C000002070BD0000000010B5D8B10446D0F85D
:1026D000880028B9002084F88400204600F028F8FB
:1026E0002420C4F888002068A16A0268002922F02A
:1026F0000101016002D0204600F012FE204600F0E9
:1027000037FF08B1012010BD2068416821F49041D5
:102710004160816821F02A018160016841F0010176
:1027200001602046BDE8104000F06ABE00000000D5
:10273000B0B5B8B0044602A80830B82100253395DA
:10274000CDE93655CDE93455FDF7FAFD41F20001EA
:102750002068C4F20101884202D038B0B0BD00BF89
:102760000120029002A80395FEF76AFC08B1FDF76C
:1027700047FE44F2E040C5F60200016941F0100155
:102780000161016901F0100101910199016841F0B5
:1027900002010160006833A900F002000190019875
:1027A0004FF440403390022034900020CDE93500B2
:1027B0000420379040F20040C5F60200FDF728FEE5
:1027C00038B0B0BD000000002DE9F04381B00446F0
:1027D000D0F88800202807D10120002918BF002A3E
:1027E00006D101B0BDE8F083022001B0BDE8F0835E
:1027F0001D460E460020C4F890002120C4F8880031
:102800001746FDF7E9FEA4F854708146A4F8567007
:10281000A168B1F5805F02D12069002866D03746F3
:102820000020B4F856100029216867D06A1C28D00F
:10283000002D53D0804600BFC86900060AD4FDF7BA
:10284000CBFEA0EB0900A84200F284802168086852
:10285000F2E700BF17B117F8010B04E038F8020BDC
:1028600000276FF35F208862B4F856000138A4F89F
:102870005600B4F856000028DED13FE0CA691206BF
:1028800009D4CA69120606D4CA6912065CBFCA69AD
:102890005FEA0262F2D51FB117F8012B05E000BF15
:1028A00030F8022B00276FF35F228A62B4F85620BB
:1028B000013AA4F85620B4F85620002AE1D11DE0D0
:1028C00030F8022B00276FF35F228A62B4F856209B
:1028D000013AA4F85620B4F856207AB1CA69120613
:1028E00036D5002FECD017F8012BEEE70027304645
:1028F000B4F85610002921687FF498AFC8694006E3
:102900001ED42DB3681C14D1C86940062AD4C869E6
:10291000400627D4C869400624D4C86940064FF051
:102920000000F1D50DE000BF20680168C0694006D5
:1029300018D4FDF751FEA0EB0900A842F4D909E034
:1029400000202021C4F8881001B0BDE8F08300BF4A
:10295000FDF742FE03202021C4F8881001B0BDE835
:10296000F08300BF00202021C4F8881001B0BDE82A
:10297000F083000000000000FEE7000000000000FF
:1029800070B5044600688369DB0603D40021002289
:1029900069E000BF0E461021C161816989065ED4DD
:1029A000711C52D0154636BBFDF716FE20684268F2
:1029B00094F8421083691B040CD512F4804209D1AB
:1029C000202907D0416841F480414160FDF704FEB1
:1029D000054600BF20688169890605D4FDF7FCFD26
:1029E000401B1A28F6D328E081698906DCD536E039
:1029F0008169890633D4FDF7EFFD401BB0422068A2
:102A0000F6D9426894F8421083691B040CD512F47D
:102A1000804209D1202907D0416841F480414160BA
:102A2000FDF7DAFD054600BF206881698906DFD41D
:102A3000FDF7D2FD401B1A28F6D3206801228169D8
:102A4000242110E08169890609D48169890606D4A8
:102A5000816989065CBF81695FEA8161F2D52021C5
:102A6000C161012204218369DE0505D541F0010120
:102A70004FF48072C26101225E0505D49B050AD421
:102A800072B9002070BD00BF41F008019A054FF4F3
:102A90008062C26104D541F002014FF40072C2614C
:102AA0008269920701D5002282628269D20703D12E
:102AB000826942F0010282614EF600034268CFF65D
:102AC00000631A404260606C08436064202084F810
:102AD0004100002084F8420084F84000012070BDCD
:102AE0002DE9F0410446006880690840401AB0FAB8
:102AF00080F04009904221D10D4616461F46581CD1
:102B0000DDF8188027D0CFBB002120464246FFF7D2
:102B100037FF002853D1FDF75FFD20688169294008
:102B2000491BB1FA81F14909B1423CD08069284082
:102B3000401BB0FA80F04009B042E5D00020BDE86B
:102B4000F08100BF206880692840401BB0FA80F007
:102B50004009B042F2D14FF0FF3120464246FFF724
:102B60000FFF0028EED00120BDE8F08180692840E9
:102B7000401BB0FA80F04009B042DFD12046394610
:102B80004246FFF7FDFED0B9FDF726FDA0EB080099
:102B9000B8422068EAD981692940491BB1FA81F11C
:102BA0004909B142E2D1606C40F02000606420200D
:102BB00084F84100002084F8420084F8400001209D
:102BC000BDE8F081000000002DE9F04F81B004461F
:102BD00000684FF000080027806940074DD44EF68A
:102BE000000915468A464FF0200BCFF6006900BF5A
:102BF000204651462A46FFF7C3FE216807460028B3
:102C000018BF0127002888691DD110F020001AD0B4
:102C100088698A69D20605D4400748BF4746C4F888
:102C2000448010E01020C86104206064C1F81CB02A
:102C30000127486800EA0900486084F841B084F838
:102C4000428084F840805646BAF1000F18BF012632
:102C5000FDF7C2FC401B50454FF0000098BF01201B
:102C60000642206808BF002F02D18169490709D5B3
:102C70008069400701D4002FBAD0384601B0BDE8C2
:102C8000F08F00BF616C012741F0200161642021B9
:102C900084F84110002184F840108069384601B062
:102CA000BDE8F08F0000000070B504460068806940
:102CB000800635D415460E4619B928E0806980068D
:102CC0002ED4204631462A46FFF75AFE30BBFDF788
:102CD00083FC401BB0422068F0D981698906EDD49D
:102CE000606C40F020006064202084F841000020E7
:102CF00084F8420084F84000012070BDFDF76CFCB0
:102D0000206881698906EBD58069800608D4002196
:102D100020462A46FFF734FE0028EFD0012070BD80
:102D2000002070BD0000000070B504460068806996
:102D3000800714D415460E46481C17D01EBB00BF92
:102D4000002120462A46FFF71BFEB8BBFDF744FCD6
:102D500020688169890725D580698007F0D5002022
:102D600070BD00BF206880698007F8D44FF0FF3144
:102D700020462A46FFF704FE0028F3D0012070BD4C
:102D800080698007EBD4204631462A46FFF7F8FDDC
:102D9000A0B9FDF721FC401BB0422068F0D9816941
:102DA0008907EDD4606C40F020006064202084F836
:102DB0004100002084F8420084F84000012070BDEA
:102DC00080B586B000200590CDE90300CDE9010073
:102DD00044F2E040C5F60200016841F002010160E2
:102DE000006801A900F002000090009810200190F6
:102DF0000120039040F20040C5F60200FDF708FBF9
:102E000006B080BD0000000080B540F2180045F219
:102E10000041C2F200404EF6FF42C4F20001C1F28E
:102E2000C002C0E90012002181600122C0E9032133
:102E3000C0E90511C0E90711FDF722FC08B1FDF753
:102E4000DFFA40F218000021C2F20040FDF7CCFB8F
:102E500008B1FDF7D5FA40F218000021C2F2004097
:102E6000FDF7EAFB002808BF80BDBDE88040FDF704
:102E7000C7BA00000000000080B540F26C0041F2CB
:102E80000001C2F20040C4F201010C2201604FF4C3
:102E9000E13141600021C0E902110161C0E9052171
:102EA000C0E90711C0E90911FFF70EFC08B1FDF7F1
:102EB000A7FA40F26C000021C2F20040FFF7BCFB11
:102EC00008B1FDF79DFA40F26C000021C2F200400B
:102ED000FFF76AFB08B1FDF793FA40F26C00C2F20B
:102EE0000040FFF745FB002808BF80BDBDE88040DB
:102EF000FDF786BA00000000FEE7000000000000B9
:102F0000FEE7000000000000704700000000000025
:102F1000F0B581B044F22C47C5F6020757F8042CEF
:102F200002F00302032A03D1012001B0F0BD00BF6B
:102F3000054657F82C0C0C4620F0806047F82C0C06
:102F4000FDF74AFB064600BF57F82C0C000105D5DB
:102F5000FDF742FB801B0228F6D964E057F8040C09
:102F6000EE6895E80E0020F47C30012C40EA013038
:102F7000A2F101016FF35F214FF47E4202EB432285
:102F800047F8040C92B24FF0FE4302EB01004FF4FD
:102F9000FE012A6901EB064101F4FE0103EB026226
:102FA000084402F0FE410844F8603868696920F07E
:102FB000C00040EA010038603868A96920F02000AC
:102FC00040EA0100386038684FF6F87120F01000D0
:102FD00038603869EA6920EA01004FF4001140EADC
:102FE000C2003861386808BF4FF4801140F010000B
:102FF000002C386008BF4FF400213868084338605F
:1030000057F82C0C40F0806047F82C0CFDF7E4FAE0
:10301000044600BF57F82C0C000107D4FDF7DCFA7A
:10302000001B0328F6D3032001B0F0BD002001B03F
:10303000F0BD000000000000F0B581B044F22C4764
:10304000C5F6020757F8042C02F00302032A03D145
:10305000012001B0F0BD00BF054657F82C0C0C460E
:1030600020F0805047F82C0CFDF7B6FA064600BF5A
:1030700057F82C0C800005D5FDF7AEFA801B02280E
:10308000F6D964E057F8040CEE6895E80E0020F0DD
:103090007C70012C40EA0150A2F101016FF35F2125
:1030A0004FF47E4202EB432247F8040C92B24FF0F9
:1030B000FE4302EB01004FF4FE012A6901EB0641D9
:1030C00001F4FE0103EB0262084402F0FE410844F1
:1030D00078613868696920F4406040EA010038602E
:1030E0003868A96920F4007040EA01003860386847
:1030F0004FF6F87120F480703860B869EA6920EA08
:1031000001004FF0807140EAC200B861386808BF22
:103110004FF4000140F48070002C386008BF4FF479
:10312000800138680843386057F82C0C40F0805014
:1031300047F82C0CFDF750FA044600BF57F82C0C4A
:10314000800007D4FDF748FA001B0328F6D30320BC
:1031500001B0F0BD002001B0F0BD00000000000093
:103160007047000000000000FDF7F2BC0000000006
:10317000B0B59CB044F6180409A84C21C5F6020469
:10318000FDF7DEF802200025CDE90755CDE905550C
:10319000CDE90355CDE90155FDF7E6FD40F22C40A0
:1031A0000095C5F60000016821F00101016000688A
:1031B00000F001000090206840F44040206020684A
:1031C00000F44040009000982068800409D42068F2
:1031D00080045CBF20685FEA804002D420688004DD
:1031E000F2D50220099001210C91129000250421B2
:1031F000149132214024CDE91510CDE917000C209F
:103200000D94CDE9190509A813951B95FEF7E0FE6D
:1032100020B1EFF3108072B6FEE700BF3F200190AF
:1032200003200221CDE9020508200694CDE904041B
:103230004FF48060CDE9070401A8FEF789FC28B1AE
:10324000EFF3108072B600BFFEE700BF1CB0B0BD48
:103250004EF6885042F2000CCEF20000C5F2002C6F
:10326000016841F470010160DCF8000000F00F001B
:10327000062806D8DCF80000072161F30300CCF82B
:10328000000044F200404EF67F52C5F60200CEF632
:10329000F622016841F0010101600021016103682B
:1032A0001A400260DCF80020120706D5DCF8002086
:1032B000072363F30302CCF8002040F2002281616F
:1032C000C161C0F20222016282620022C0F2FF12DA
:1032D000C26240F28022C0F2011202634163826343
:1032E000C16302644164026822F4802202600166C4
:1032F00041F20000C5F600400068B1EB507F05D1F7
:1033000048F208100121C5F20010016044F20000EB
:1033100043F2D201C5F200200160704700000000B6
:10332000816A0A070CD4CA0715D18A071ED44A0736
:1033300027D4CA0630D48A0639D44A0642D454E087
:103340000268D0F838C0536823F4004343EA0C0302
:103350005360CA07E9D00268D0F82CC0536823F440
:10336000003343EA0C0353608A07E0D50268D0F8C3
:1033700030C0536823F4803343EA0C0353604A0798
:10338000D7D50268D0F834C0536823F4802343EAC9
:103390000C035360CA06CED50268D0F83CC09368CF
:1033A00023F4805343EA0C0393608A06C5D5026870
:1033B000D0F840C0936823F4005343EA0C039360B1
:1033C0004A0612D50268D0F844C0BCF5801F536885
:1033D00023F4801343EA0C03536006D1536823F4AB
:1033E000C00C836C43EA0C035360090658BF704756
:1033F0000168C06C4A6822F400221043486070479C
:10340000B0B582B004460020C4F89000FDF7E4F89F
:10341000216805460A68120737D54FF400110022CB
:103420006FF07E40009020462B4600F0E5FA58B33E
:10343000206850E8000F216820F0800041E8000279
:10344000002A1FBF206850E8000F216820F080008C
:103450001CBF41E80002002A12D0206850E8000F8B
:10346000216820F0800041E800024AB1206850E85D
:10347000000F216820F0800041E80002002AD7D127
:103480000320202188226CE02168086840075FD56E
:103490004FF4800100226FF07E40009020462B46C2
:1034A00000F0AAFA002853D0206850E8000F2168E5
:1034B00020F4907041E80002F2B1206850E8000F5B
:1034C000216820F4907041E80002002A1FBF2068A4
:1034D00050E8000F216820F490701CBF41E8000202
:1034E000002A09D0206850E8000F216820F490706D
:1034F00041E80002002AD7D1206850E8020F216875
:1035000020F0010041E80202002A1FBF206850E8B5
:10351000020F216820F001001CBF41E80202002ACE
:1035200012D0206850E8020F216820F0010041E825
:1035300002024AB1206850E8020F216820F0010021
:1035400041E80202002AD7D1032020218C2208E082
:103550002020C4F88800C4F88C00002170220020CC
:10356000E166A150002184F8841002B0B0BD0000D3
:10357000F0B583B00446006846F6F31640F6004EF8
:1035800022696569D4E902130A43E7690168CCF648
:10359000FF762A4331401143C5F6000E39430160DE
:1035A0004168704521F4405144F2544C41EA030112
:1035B0004160A2694FF2FF431CBF216A0A43816840
:1035C000C1F2FF131940C5F6020C1143816047F2A6
:1035D000FF72C16AC4F2000221F00F01656A9042D5
:1035E0004FF0800341EA0501C1621FDD40F6FF7123
:1035F000C4F2010188423BDD704500F0258141F2B3
:103600000041C4F20101884205D041F20001C4F238
:103610000101884244D1DCF80010C1F3C202062A3D
:103620003ED244F2AC21C0F6000137E044F6FF314F
:10363000C4F2000188420DDC44F20041C4F20001F2
:10364000884221D044F60001C4F2000188421BD018
:1036500026E000BF44F60041C4F20001884213D0C6
:1036600045F20001C4F2000188420DD018E000BF0D
:1036700047F60001C4F20001884205D047F6004138
:10368000C4F2000188420BD1DCF8001001F00702FF
:10369000062A05D244F2B221C0F600018B181B782D
:1036A000704540F60010C0F23D0000F05380B7F5C1
:1036B000004F40F07B80402B4FF0010100F28F81E2
:1036C000DFE813F0420038018D018D0140018D01CA
:1036D0008D018D014C018D018D018D018D018D01BB
:1036E0008D018D0114018D018D018D018D018D01E3
:1036F0008D018D018D018D018D018D018D018D015A
:103700008D018D0152018D018D018D018D018D0184
:103710008D018D018D018D018D018D018D018D0139
:103720008D018D018D018D018D018D018D018D0129
:103730008D018D018D018D018D018D018D018D0119
:103740008D018D01300100BFFEF756FB002840F0CF
:103750000A8140E19A1E01211E2A00F27F80DFE8E3
:1037600012F01F003E0191003E013E013E01970014
:103770003E013E013E013E013E013E013E0183000D
:103780003E013E013E013E013E013E013E013E0141
:103790003E013E013E013E013E013E013E019F00D1
:1037A000FDF70AFB002840F07A8014E1402B4FF02F
:1037B000010100F21481DFE813F04100C1001201A1
:1037C0001201CB00120112011201F30012011201C9
:1037D00012011201120112011201A70012011201BD
:1037E0001201120112011201120112011201120141
:1037F00012011201120112011201F900120112014B
:103800001201120112011201120112011201120120
:103810001201120112011201120112011201120110
:103820001201120112011201120112011201120100
:1038300012011201120112011201B900FEF7DCFAA5
:10384000002840F0B280C6E0DCF8041001F0070266
:10385000062ABFF425AF66A120E700BF402B40F049
:10386000BE804FF400401BE05CF8540C800649F227
:103870000000C0F2D03013D55CF8541CC1F3C10174
:10388000C8400DE06846FDF7ABFA019838B9A2E0F0
:103890006846FDF73DFB0198002800F09C80656AB2
:1038A00044F2C8216268C0F6000131F81510B0FB7F
:1038B000F1F002EB420188424FF00101C0F08F802D
:1038C0001303984200F28B80010E0023000210EBDC
:1038D000520041F10001FCF7FBFC4FF60052A0F54D
:1038E0004071C0F20F02914273D377E05CF8540C40
:1038F000800649F20000C0F2D03035D55CF8541C87
:10390000C1F3C101C8402FE05CF8540C800649F2B5
:103910000000C0F2D03049D55CF8541CC1F3C1019D
:10392000C84043E04FF400401EE000BF4FF40040A9
:103930003CE000BFFEF790FAA8B94CE0FEF78CFA25
:1039400098BB48E06846FDF74BFA019858B942E049
:103950006846FDF745FA019838BB3CE06846FDF73C
:10396000D7FA0198B8B3656A44F2C821C0F60001DD
:1039700031F81510B0FBF1F061684A0802EB400025
:103980004FF6EF72B0FBF1F0A0F11001914225D893
:103990004FF6F0710140C0F34200084419E000BF47
:1039A0006846FDF7B5FA0198A8B1656A44F2C821E6
:1039B0006268C0F6000131F81510B0FBF1F000EBC1
:1039C0005200B0FBF2F0A0F110014FF6EF729142FD
:1039D00004D82168C860002101E000BF01214FF038
:1039E0000110A0660020C4E91D00084603B0F0BD28
:1039F00002040810204000002DE9F04180460068D4
:103A00000D46C7693940491BB1FA81F14909914214
:103A100025D1069C34B31646611C29D1C1692940C1
:103A2000491BB1FA81F14909B14218D1C169294054
:103A3000491BB1FA81F14909B14201BFC16929406D
:103A4000491BB1FA81F104BF4909B14207D1C169EB
:103A50002940491BB1FA81F14909B142DED0002069
:103A6000BDE8F081FCF7B8FD0320BDE8F08100BFA0
:103A70001F4607E0C0692840401BB0FA80F04009AB
:103A8000B042ECD1FCF7A8FDC01BA04200F2B6800A
:103A9000D8F8000001684907ECD5402D18BF802DEB
:103AA000E8D0C169090700F1AD80C1690905E1D518
:103AB0004FF400610162D8F8000050E8000FD8F818
:103AC000001020F4907041E8000222B3D8F8000002
:103AD00050E8000FD8F8001020F4907041E8000280
:103AE000002A1FBFD8F8000050E8000FD8F80010D7
:103AF00020F490701CBF41E80002002A0BD0D8F8D7
:103B0000000050E8000FD8F8001020F4907041E851
:103B10000002002ACFD14FF6FE70CEF6FF70D8F823
:103B2000001051E8021FD8F80020014042E80213BB
:103B30000BB3D8F8001051E8021FD8F8002001405C
:103B400042E80213002B1FBFD8F8001051E8021FF3
:103B5000D8F8002001401CBF42E80213002B0AD015
:103B6000D8F8001051E8021FD8F80020014042E8C0
:103B70000213002BD3D1D8F86C0001282FD1D8F82C
:103B8000000050E8000FD8F8001020F0100041E8C5
:103B9000000222B3D8F8000050E8000FD8F8001057
:103BA00020F0100041E80002002A1FBFD8F80000F2
:103BB00050E8000FD8F8001020F010001CBF41E8BA
:103BC0000002002A0BD0D8F8000050E8000FD8F807
:103BD000001020F0100041E80002002ACFD1202080
:103BE000C8F88C000021C8F86C10C8F87410C8F828
:103BF0009000032088F88410BDE8F0810320BDE820
:103C0000F08100BF08210162D8F8000050E8000FE1
:103C1000D8F8001020F4907041E8000222B3D8F8E0
:103C2000000050E8000FD8F8001020F4907041E830
:103C30000002002A1FBFD8F8000050E8000FD8F893
:103C4000001020F490701CBF41E80002002A0BD045
:103C5000D8F8000050E8000FD8F8001020F4907059
:103C600041E80002002ACFD14FF6FE70CEF6FF7079
:103C7000D8F8001051E8021FD8F80020014042E8AF
:103C800002130BB3D8F8001051E8021FD8F8002037
:103C9000014042E80213002B1FBFD8F8001051E882
:103CA000021FD8F8002001401CBF42E80213002B7D
:103CB0000AD0D8F8001051E8021FD8F800200140BF
:103CC00042E80213002BD3D1D8F86C0001282FD181
:103CD000D8F8000050E8000FD8F8001020F01000CD
:103CE00041E8000222B3D8F8000050E8000FD8F8ED
:103CF000001020F0100041E80002002A1FBFD8F891
:103D0000000050E8000FD8F8001020F010001CBF91
:103D100041E80002002A0BD0D8F8000050E8000F5C
:103D2000D8F8001020F0100041E80002002ACFD19E
:103D30002020C8F88C000020C8F86C00C8F8740077
:103D40000821C8F8901088F884000120BDE8F081AF
:103D5000FEE700000000000080B582B0019040F254
:103D60006C00C2F2004001A901224FF0FF33FEF7C0
:103D70002BFD019802B080BD84B001200090FCF7BB
:103D800083FF0020019048F21F70029040F2011062
:103D900003906846FCF748FF0420FCF785FFFCF71A
:103DA000E7FEFFF7E5F9FFF70BF8FFF72DF8FFF750
:103DB00063F840F2004408A5C5F60204102120462D
:103DC000FCF7FAFB0028F9D1284600F05DFA012043
:103DD00000F00EF8F2E700BFE794B5E5B9B3E8A24A
:103DE000ABE68B89E4BD8E200D00000000000000D2
:103DF00010B592B001208DF8470002A83F21FCF7D2
:103E00009FFA40F218000DF14702C2F2004058211B
:103E1000082303240094FCF763FD28B1ABA000F055
:103E200033FA12B010BD00BF40F2180002AAC2F26D
:103E3000004059213F230094FCF77AFC20B1A8A050
:103E400000F022FA12B010BD44F2F0249DF80810E0
:103E5000C0F60004204600F04DF99DF809102046F8
:103E600000F048F99DF80A10204600F043F99DF84B
:103E70000B10204600F03EF99DF80C10204600F093
:103E800039F99DF80D10204600F034F99DF80E1018
:103E9000204600F02FF99DF80F10204600F02AF977
:103EA0009DF81010204600F025F99DF811102046CD
:103EB00000F020F99DF81210204600F01BF99DF843
:103EC0001310204600F016F99DF81410204600F05B
:103ED00011F99DF81510204600F00CF99DF8161008
:103EE000204600F007F99DF81710204600F002F96F
:103EF0009DF81810204600F0FDF89DF81910204696
:103F000000F0F8F89DF81A10204600F0F3F89DF83C
:103F10001B10204600F0EEF89DF81C10204600F023
:103F2000E9F89DF81D10204600F0E4F89DF81E10F9
:103F3000204600F0DFF89DF81F10204600F0DAF868
:103F40009DF82010204600F0D5F89DF8211020465D
:103F500000F0D0F89DF82210204600F0CBF89DF834
:103F60002310204600F0C6F89DF82410204600F0EB
:103F7000C1F89DF82510204600F0BCF89DF82610E9
:103F8000204600F0B7F89DF82710204600F0B2F860
:103F90009DF82810204600F0ADF89DF82910204625
:103FA00000F0A8F89DF82A10204600F0A3F89DF82C
:103FB0002B10204600F09EF89DF82C10204600F0B3
:103FC00099F89DF82D10204600F094F89DF82E10D9
:103FD000204600F08FF89DF82F10204600F08AF858
:103FE0009DF83010204600F085F89DF831102046ED
:103FF00000F080F89DF83210204600F07BF89DF824
:104000003310204600F076F89DF83410204600F07A
:1040100071F89DF83510204600F06CF89DF83610C8
:10402000204600F067F89DF83710204600F062F84F
:104030009DF83810204600F05DF89DF839102046B4
:1040400000F058F89DF83A10204600F053F89DF81B
:104050003B10204600F04EF89DF83C10204600F042
:1040600049F89DF83D10204600F044F89DF83E10B8
:10407000204600F03FF89DF83F10204600F03AF847
:104080009DF84010204600F035F89DF8411020467C
:1040900000F030F89DF84210204600F02BF89DF813
:1040A0004310204600F026F89DF84410204600F00A
:1040B00021F89DF84510204600F01CF89DF84610A8
:1040C000204600F017F812B010BD00BF493243205F
:1040D0005472616E736D6974204572726F720D0057
:1040E0004932432052656365697665204572726F77
:1040F000720D00000FB4054B10B503A9044A0298D5
:1041000000F018F810BC5DF814FB0000593D0008E1
:104110000000002402E008C8121F08C1002AFAD1DA
:1041200070477047002001E001C1121F002AFBD137
:10413000704700002DE9FF4F89B09B4604460025DB
:1041400006E025280BD05A460B999047641C6D1C3D
:1041500020780028F5D10DB02846BDE8F08F002763
:10416000B8460122474900E0074314F8013F203BCD
:1041700002FA03F00842F7D120782E2819D114F85A
:10418000010F47F004072A280ED06FF02F02207885
:10419000A0F1300109290CD808EB880102EB41019C
:1041A00000EB0108641CF2E70A98641C50F8048BC9
:1041B0000A9020780028CED0642808D0692806D03C
:1041C00075281ED05A460B9990476D1C58E00A99E5
:1041D0004FF00A0901C90A91002802DA40422D2154
:1041E00002E0390504D52B218DF82010012103E0D0
:1041F000F90704D02021F7E78A4608AE0DE0002138
:10420000FAE70A994FF00A0901C90A91F7E7494606
:10421000FCF7A1F8303106F8011D0028F7D1ADEB0D
:10422000060000F12009780701D44FF00108C845C5
:1042300002DDA8EB090000E000208046002706E030
:1042400008A85A46C05D0B9990476D1C7F1C5745C6
:10425000F6DB04E030205A460B9990476D1CB8F10C
:104260000001A8F10108F5DC05E016F8010B5A463B
:104270000B9990476D1CB9F10001A9F10109F4DC1B
:10428000641C65E70928010010B5044601E0FFF74A
:1042900063FD14F8010B04490028F8D1BDE8104073
:1042A0000A20FFF759BD0000000000240104081097
:1042B0002040000408102040000000000102030418
:1042C00001020304060708090100020004000600B9
:1042D00008000A000C0010002000400080000001CF
:1042E00001010103070100000804020408010101A3
:1042F00064617461203D202564200D0A00000000E7
:1043000020430008000000241800000014410008A9
:104310003843000818000024F0040000244100087D
:104320000000000001000000100000000090D00319
:084330000090D0030000000022
:040000050800029954
:00000001FF
